:020000023000CC
:1000000000000120B5020300DD020300DF0203004F
:10001000E1020300E3020300E50203000000000028
:10002000000000000000000000000000E7020300E4
:10003000E902030000000000EB020300ED020300F0
:1000400035570300EF02030059610300EF0203007C
:10005000EF020300EF020300115C0300EF02030054
:10006000EF020300EF020300EF020300EF020300C0
:10007000EF020300EF020300EF020300EF020300B0
:10008000EF020300091A0300EF020300EF0203006E
:10009000A91A0300EF02030091D30300EF0203004B
:1000A000EF020300EF020300EF020300EF02030080
:1000B000EF020300EF020300000000000000000058
:1000C000EF020300EF020300EF020300EF02030060
:1000D000EF020300EF020300EF0203000000000044
:1000E0000000000000000000000000000000000010
:1000F0000000000000000000000000000000000000
:1001000000000000000000000000000000000000EF
:1001100000000000000000000000000000000000DF
:1001200000000000000000000000000000000000CF
:1001300000000000000000000000000000000000BF
:1001400000000000000000000000000000000000AF
:10015000000000000000000000000000000000009F
:10016000000000000000000000000000000000008F
:10017000000000000000000000000000000000007F
:10018000000000000000000000000000000000006F
:10019000000000000000000000000000000000005F
:1001A000000000000000000000000000000000004F
:1001B000000000000000000000000000000000003F
:1001C000000000000000000000000000000000002F
:1001D000000000000000000000000000000000001F
:1001E000000000000000000000000000000000000F
:1001F00000000000000000000000000000000000FF
:1002000010B5054C237833B9044B13B10448AFF350
:1002100000800123237010BDE02A002000000000B0
:10022000C408040008B5034B1BB103490348AFF3EE
:10023000008008BD00000000E42A0020C40804007B
:10024000154B002B08BF134B9D46A3F5803A0021A8
:100250008B460F461348144A121A0DF00FFA0F4B33
:10026000002B00D098470E4B002B00D09847002061
:10027000002104000D000D48002802D00C48AFF307
:1002800000800DF09DF92000290009F053F90DF0D0
:1002900083F900BF000008000000012000000000FA
:1002A00000000000E02A0020343B00200000000095
:1002B000000000000649074A074B9B1A03DD043B78
:1002C000C858D050FBDC04F0B9FEFFF7B9FF0000BE
:1002D000800A040038280020E02A0020FEE7FEE71C
:1002E000FEE7FEE7FEE7FEE7FEE7FEE7FEE7FEE7E6
:1002F000F0B595B0002415460F4608461E4604F09A
:1003000005FD384623460895082205A91A9D099639
:100310000D950A948DF82C400C9404F051FD9DF835
:1003200014308DF81140DDE9061003F00302012AB4
:10033000CDE9020127D0022A04D0384604F0EAFCB5
:1003400015B0F0BDBDF81650C3F3C2038DF81030E0
:10035000AD090826082D2C4628BF0824334622461E
:100360000EA9384604F02CFD2D1B214608AB02AA2D
:100370000EA8264400F0AAFF002DEBD1384604F069
:10038000C9FC15B0F0BDBDF81460059DC6F3831619
:10039000C3F3C204B2000EA9384608238DF81040FA
:1003A000C5F3952504F00CFD08AB324628460EA98E
:1003B000009302AB00F0E4FE384604F0ABFC15B04D
:1003C000F0BD00BF014B01221A707047402B002086
:1003D000704700BF00B583B0044B0093044A40232C
:1003E000FFF786FF03B05DF804FB00BFF5030300D1
:1003F000002B002038B50F480F4D03780F4CEB5CF5
:100400000025D2B2257053B90C3006F0EBF858B97C
:100410000B4B1B7813B12378002BFCD038BD043074
:1004200006F018FB0028F3D0064A532101F098F992
:10043000EEE700BF382800202C3B0020402B002096
:10044000FC2A00207CE2030070B51448144A0378AB
:10045000D35C88B0EBB90C3006F05EF8114D0FCDCF
:100460006C460FC495E80F0008AD062645F8206DD0
:1004700084E80F0029460022084805F0EFF818B17B
:10048000094A432101F06CF9084B00221A7008B0A8
:1004900070BD043006F076FAE0E700BF382800208F
:1004A0002C3B002050E203007CE20300FC2A0020E9
:1004B00070B50E4D0FCD88B06C460FC495E80F0097
:1004C00008AD062645F8206D84E80F002946084A45
:1004D000084805F0C3F818B1074A432101F040F974
:1004E000064B01221A7008B070BD00BF50E2030035
:1004F000C5030300382800207CE20300FC2A00200A
:1005000008B5FFF7D5FF0421034800F0EFFD034BCA
:1005100001225A7108BD00BF680A04004C2800205F
:10052000F0B5324C85B004F5836003F03FFA04F275
:10053000144003F03BFAD4E9013703EA0702D01C68
:1005400004EB800114F8200010F0040044D003F103
:10055000020C0E7806F00306012E654635D0022EF9
:1005600002F1030621D004EB86010028F1D104EB4F
:1005700082020133D26801923B4004EB830302F014
:100580000302012ADE6829D0022A23D1BDF80630F1
:100590009B090333360C05EB9305154803F012FA5B
:1005A00000B16560304605B0F0BD4B880CEB93138D
:1005B00007EA0302D11C03F1020C14F8210065467E
:1005C00004EB810100F00400CFE70B88C3F3831331
:1005D0006344EDE70026E0E79D1CC8E7BDF8043062
:1005E000C3F38313360C1D44D7E700BF142C00203F
:1005F000283000200B4B0C4810B50022FF21C3F817
:1006000018249960C3E90022C3F8142483F8202435
:1006100004F038FB044610B9044804F0A3FC20465B
:1006200010BD00BF142C002044090400DCE20300CC
:1006300021B9124B03EBC00000687047104A0F4904
:10064000521AD20815D030B40E4D2B88834212D0E6
:10065000002303E035F82340844205D001339A4259
:10066000F8D1002030BC704701EBC300006830BCFB
:100670007047104670470846F8E700BF5809040065
:10068000680A0400E02A0020094B013903EBC0008E
:1006900003290BD8DFE801F00208060402207047A6
:1006A00040797047007970470420704700207047F8
:1006B000580904002DE9F04383B002AB002203F88F
:1006C000012DDFF8DC90074618468846D9F8084027
:1006D00001F0B0FCD9E90132D9F8006013440133CC
:1006E0009B1B012B58D809F21C450121284603F019
:1006F00039F9FFF715FF0146284603F033F9D9E928
:100700000132D9F80010134401335B1A012BECD9E4
:100710000A400332052302319DF8070049F82230D0
:10072000C9F8001001F0ACFC00211C4803F0E0F80F
:1007300080F31000731C234009EB83030004344052
:10074000033440EA1740D86019F8243067F3C50332
:1007500009F8243039F824306FF3891329F824304C
:1007600059F8242068F39F221346012161F3010305
:100770006FF3820349F8242009F8243099F82034D3
:100780001BB906E000F00EF818B1D9E900329A4220
:10079000F8D103B0BDE8F0833146B9E7303000202E
:1007A000142C00202DE9F047934C002384B0C4F8AA
:1007B0001834BFF34F8FD4E9015605EA0602D31C63
:1007C00004EB830114F82330580719D527680B78F8
:1007D00003F00303012B43D0022B03D14B880235D6
:1007E00005EB931506EA0502D4F81804D31C04EBB4
:1007F000830128B9AF4239D914F823305B07E6D416
:1008000004EB82026B1CD2680192334004EB830339
:1008100002F00302DB680293022A05F1020700F0EE
:100820008D80012A26D0D4F810543DB12B6828467B
:100830009B689847EB681D68002DF7D16F48704B97
:100840007049C01AC008000440F00200FFF732FFF0
:10085000D4E90030C01A18BF012004B0BDE8F08709
:100860000B880235C3F383131D44BBE7676004B0F4
:10087000BDE8F087BDF804206348C2F38313062B5C
:1008800028BF062363F3891202339900ADF80420D0
:1008900004F0FAF980460028C5D004F037FA0023A6
:1008A000082201A9404604F057FABDF8043013F4B9
:1008B000707F00F09F806FF0010AAAEB050A0825FF
:1008C00006EA070103312B46042204EB810140466E
:1008D00004F042FABDF8043007F101090AEB0902FD
:1008E000C3F3831393424F4605F10405E8D8D4F8C7
:1008F0001834002B68D1D4F8105465B1EB685A79DC
:1009000028464146002A5BD02B681B689847EB6855
:100910001D68002DF2D1404604F0FCF904A8002324
:1009200000F80D3D01F086FBD4F818340BB9C4F87B
:1009300004909DF8030001F0A3FB89E7BDF80630A1
:1009400031484FEA93194D46502D28BF502565F385
:100950008F1305F10801ADF8063004F095F98046D3
:1009600000283FF460AF26EA070A0AF1010A04F002
:10097000CDF94FEA8A0A0023082201A9404604F073
:10098000EBF955452BD9EBB2BAF1000F20D006EAAE
:100990000701A3EB0A03033104EB8101DDB25246E8
:1009A0000823404604F0D8F92A460AF108031749FB
:1009B000404604F0D1F909F1030907EB990996E7DC
:1009C0001D68002D9AD1A6E7404604F0A3F93FE741
:1009D0002A4608230D49404604F0BEF9EBE706EA33
:1009E0000701033104EB81012A460823404604F045
:1009F000B3F9E0E7B9467AE7142C0020C8090400EF
:100A000058090400E8E2030044090400202C0020F7
:100A10002DE9F04782B002AB002403F8014DDFF866
:100A2000ECA00746184691468846DAF8084001F0DF
:100A300001FBDAE90132DAF80060134401339B1B51
:100A4000022B5ED80AF21C450121284602F08AFFDB
:100A5000FFF766FD0146284602F084FFDAE901321D
:100A6000DAF80010134401335B1A022BECD90A4068
:100A70000332033145239DF807004AF82230CAF8B3
:100A8000001001F0FDFAB31C23400AEB83030021A0
:100A90001D48C3F80C9002F02BFF80F31000731C6C
:100AA00023400AEB830300043440033440EA174038
:100AB000D8601AF8243067F3C5030AF824303AF8EE
:100AC0002430012161F389132AF824305AF82420B4
:100AD00068F39F22134661F301036FF382034AF820
:100AE00024200AF824309AF820341BB906E0FFF7D6
:100AF00059FE18B1DAE900329A42F8D102B0BDE8E5
:100B0000F0873146B3E700BF30300020142C0020BE
:100B10002DE9F04F83B002AD002405F8014D3B4CA8
:100B20008046284693469A468946A56801F082FA8F
:100B3000D4E90132276813440133DB1B032B63D84C
:100B400004F21C460121304602F00CFFFFF7E8FCDE
:100B50000146304602F006FFD4E901322168134411
:100B600001335B1A032BEDD90A400332852344F885
:100B7000223004319DF80700216001F081FABA1C8F
:100B8000FB1C2A402B4004EB820204EB8303002170
:100B90001F48C2F80CB0C3F80CA002F0A9FE80F305
:100BA00010007B1C2B4004EB830300043D40033505
:100BB00040EA1840D86014F8253068F3C50304F8FB
:100BC000253034F82530022262F3891324F82530C9
:100BD00054F8252069F39F221346012161F3010394
:100BE0006FF3820344F8252004F8253094F820346C
:100BF0001BB906E0FFF7D6FD18B1D4E900329A42DE
:100C0000F8D103B0BDE8F08F3946ADE7142C0020D1
:100C1000303000202DE9F04F83B002AE002406F8FA
:100C2000014D3E4C8046304693469A46A56889461B
:100C300001F000FAD4E90132276813440133DB1BC9
:100C4000042B69D804F21C460121304602F08AFECA
:100C5000FFF766FC0146304602F084FED4E901321B
:100C60002168134401335B1A042BEDD90A40033287
:100C7000C52344F8223005319DF80700216001F0BA
:100C8000FFF9B81CFA1C28402A403B1D2B4004EBFE
:100C9000800004EB820204EB8303C0F80CB0002157
:100CA000C2F80CA01E480C9ADA6002F021FE80F314
:100CB00010007B1C2B4004EB830300043D400335F4
:100CC00040EA1840D86014F8253068F3C50304F8EA
:100CD000253034F82530032262F3891324F82530B7
:100CE00054F8252069F39F221346012161F3010383
:100CF0006FF3820344F8252004F8253094F820345B
:100D00001BB906E0FFF74EFD18B1D4E900329A4254
:100D1000F8D103B0BDE8F08F3946A7E7142C0020C6
:100D2000303000202DE9F04F87B006AE002406F8E1
:100D3000114D454C109F0497CDE9022380469946FA
:100D40003046119B05939246A5688B4601F072F9D7
:100D5000D4E90132276813440133DB1B052B70D81B
:100D600004F21C460121304602F0FCFDFFF7D8FBDF
:100D70000146304602F0F6FDD4E901322168134401
:100D800001335B1A052BEDD90A40033240F20513FB
:100D900044F8223006319DF807002160FE1C01F066
:100DA0006FF9B91C29402E403A1D2A4004EB8101FD
:100DB00004EB86067B1D2B4004EB8202C1F80CA0DD
:100DC00004EB8303C6F80C90109ED6600021119AA4
:100DD0001E48DA6002F08CFD80F310007B1C2B4073
:100DE00004EB830300043D40033540EA1840D8601B
:100DF00014F8253068F3C50304F8253034F825309D
:100E0000042262F3891324F8253054F825206BF36B
:100E10009F221346012161F301036FF3820344F81B
:100E2000252004F8253094F820341BB906E0FFF79C
:100E3000B9FC18B1D4E900329A42F8D107B0BDE844
:100E4000F08F3946A0E700BF142C0020303000207E
:100E50002DE9F04F87B006AE002406F8154DCDE918
:100E60000123484C109F03979946119B0493804699
:100E7000129B059330469246A5688B4601F0DAF83E
:100E8000D4E90132276813440133DB1B062B77D8E2
:100E900004F21C460121304602F064FDFFF740FBDE
:100EA0000146304602F05EFDD4E901322168134468
:100EB00001335B1A062BEDD90A40033240F2451389
:100EC00044F8223007319DF8030021603E1D01F0F7
:100ED000D7F8B91CF81C294028402E407A1DBB1DAC
:100EE0002B402A4004EB810104EB800004EB8606D2
:100EF00004EB820204EB830C109BC1F80CA0C0F839
:100F00000C90F360119BD3600021129B1E48CCF81B
:100F10000C3002F0EDFC80F310007B1C2B4004EB46
:100F2000830300043D40033540EA1840D86014F8BC
:100F3000253068F3C50304F8253034F82530052240
:100F400062F3891324F8253054F825206BF39F228F
:100F50001346012161F301036FF3820344F8252056
:100F600004F8253094F820341BB906E0FFF71AFC8A
:100F700018B1D4E900329A42F8D107B0BDE8F08F39
:100F8000394699E7142C0020303000202DE9F04F2D
:100F900085B004AC002304F8013DDFF834B10191C1
:100FA0008246204602F103089146DBF8084001F032
:100FB00041F8DBE90121DBF800700A444FEA9808A8
:100FC0000132D21B08F1020696427AD90BF21C4577
:100FD0000121284602F0C6FCFFF7A2FA0146284686
:100FE00002F0C0FCDBE90121DBF800000A44013219
:100FF000121A9642ECD8014003310622064468F3E7
:101000009F529DF80F004BF82120CBF8006001F0B3
:1010100037F8DBF80850B81C204001352D1AAD0018
:101020000330A9450BEB80003DD801994A460CF0EE
:101030001AFB0021244802F05BFC80F310007A1CAC
:1010400022404FEA1A410BEB82023C40033441EA52
:101050000040D0601BF824206AF3C5020BF824205E
:101060003BF824206FF38F122BF824200BEB840223
:101070000220518869F38F1151801BF8242060F3FE
:1010800001026FF382020BF824209BF820241AB986
:1010900006E0FFF787FB18B1DBE900219142F8D1A8
:1010A00005B0BDE8F08F019E2A4631460CF0DBFA10
:1010B00033462B441946A9EB050204480CF0D3FA39
:1010C000B7E7384697E700BF30300020202C0020DB
:1010D000142C0020044BD3E900239A4201D0FFF7DF
:1010E00061BB0020704700BF142C002030B4184DA5
:1010F000D5F8104400215CB1E3681A798A4204D122
:1011000016E0DB681A798A4212D01B68002BF8D1EE
:10111000C3681971D5F8103493B1DA68C3681268DE
:101120001A60D5F81034DB68186030BC0846704788
:1011300001310A29DFD14FF0FF31084630BC70473A
:10114000C5F81004C2681360084630BC704700BF81
:10115000142C002038B5094BD3F81044012583F82E
:1011600020544CB1E3685D71236820465B68984762
:10117000E3681C68002CF5D138BD00BF142C00209A
:101180002DE9F04784B01D460C9C002394F80C8098
:101190002373EB8881460E461746002B40D1297AEF
:1011A00005290ED06B7AA88873BB404B53F821A059
:1011B0000021FFF73DFA524603463D49204602F022
:1011C00079FC062F09D8DFE807F0046A4249525D2E
:1011D00033004946204602F06DFC2B7A052B05D0E2
:1011E0006B7A5BB93349204602F064FC204602F07A
:1011F00055FC84F80C8004B0BDE8F0872E4A2F49D6
:10120000204602F057FCEDE7FFF73EFA2C4B2B4946
:1012100053F82020204602F04DFC297AA888C4E724
:10122000254A00922749284A204602F043FCB6E7A7
:10123000D6E90410D6E900230390D6E9020702910B
:10124000CDE900074946204602F034FCC5E749468F
:10125000D6E90023204602F02DFCBEE7B168D6E9AE
:10126000002320460091494602F024FCB5E7D6E968
:101270000201D6E90023019100904946204602F080
:1012800019FCAAE7D6E90371B068D6E900230291F8
:10129000CDE900074946204602F00CFC9DE7326884
:1012A0004946204602F006FC97E700BF74E30300BE
:1012B00064E3030070E3030058E3030060E303000A
:1012C00000E3030040E3030038E30300082900D9EA
:1012D00070472DE9F04F1D46904600232A7B2B7363
:1012E00085B0B8F80630039207460E46002B7BD136
:1012F00098F80810052911D098F80930B8F80400BA
:10130000002B63D13C4B53F821400021FFF790F9AB
:10131000224603463949284602F0CCFBDFF8FCB0F0
:10132000DFF8FC90002405E03A5D013402F0C2FBD6
:10133000082C09D0A64249462846F5D8594601341A
:1013400002F0B8FB082CF5D12D49DFF8D8B0DFF852
:10135000D890284602F0AEFB00240CE017F804A059
:10136000BAF17E0F23D92E2249462846013402F0D5
:10137000A1FB082C08D0A642F0D8594628460134D3
:1013800002F098FB082CF6D198F80830052B02D013
:1013900098F80930A3B91B49284602F08BFB284670
:1013A00002F07CFB039B2B7305B0BDE8F08F0CF0C3
:1013B0002BF950445246437813F0970FD3D0D3E71C
:1013C000114A1249284602F075FBE4E7FFF75CF981
:1013D0000F4B0E4953F82020284602F06BFB98F87B
:1013E0000810B8F804008DE7074A009209490A4A34
:1013F000284602F05FFB7BE774E3030064E303002D
:1014000030E3030070E3030058E3030060E30300EC
:1014100000E3030040E3030038E303002CE3030090
:1014200024E3030040ED030034E30300434B197849
:10143000002900F081802DE9F04F002487B00125BC
:101440008E4603E00134E4B2744560D23C4B27B2CF
:101450001E6816F837C0ACF1200205FA02F9394AC5
:10146000CCF12003D2E9000125FA03F349EA03098C
:1014700005FA0CF800EA080201EA0903134306EB37
:10148000C70BDFD021EA09032E4920EA0802604693
:10149000C1E9002304F0B2FB16F837C0ACF120021A
:1014A00005FA02F201920199CCF12003C6B225FAA5
:1014B00003F3ACF12002194306FA02F30393224B23
:1014C0000191D3E90023CDE9042305FA0CF300933D
:1014D000CCF12001039B26FA01F10B43039306FA9A
:1014E0000CF30293DDE90467DDE9002316401F4099
:1014F00032463B46DDE90267BB4208BFB24209D033
:101500000E4B013493F800E0E4B274459ED307B06B
:10151000BDE8F08F9BF80110DBF80430A1F1010168
:10152000B1FA81F14909091AB1FA81F14909002B8F
:10153000E6D060469847E3E7704700BFD030002010
:101540000831002000310020F83000202DE9F84F4C
:101550000646244800F02EFDD8B9234F0123A6F1FA
:10156000200103FA01FBC6F12002D7E9000123FAAA
:1015700002F24BEA020B03FA06FA00EA0A0201EA57
:101580000B03134307D020EA0A0421EA0B05C7E93D
:101590000045BDE8F88F304604F030FB134ED6E925
:1015A0000089C8B148EA0A0349EA0B049846A146F3
:1015B000D7E900234BEA03050D4B0A4819684AEAAC
:1015C00002044B464246C6E90023C7E90045002213
:1015D000BDE8F84F00F098BC28EA0A0829EA0B0990
:1015E000E6E700BFD830002000310020F8300020AE
:1015F000D4300020042A36D92DE9F04182B00E46BD
:101600000546144604F00CF9002836D01D491E4A40
:101610001E4B0D601E481F491C60167000230022DF
:10162000741EC0E90023C1E90023E4B2EEB105EB6A
:10163000C404194F083D4FF00008032601E0AC42F6
:1016400013D0A37820788DF806803A4601A98DF84A
:1016500004608DF8053004F091F9083C0028EED0C4
:1016600002B0BDE8F081072070470C4A0C48002109
:1016700000F038FC02B0BDE8F08104F08DF80028DD
:10168000C4D0EDE708310020D0300020D430002055
:10169000F8300020003100204D1503002D14030008
:1016A000E0E3030070B5084D2B785BB1074E0024D2
:1016B0003368012113F8340004F03EFA2B7801342A
:1016C000A342F5D8002070BDD030002008310020A2
:1016D00010B5094B1B6803EBC00413F8300004F08D
:1016E0008DFA6378A3F10103B3FA83F35B09181A47
:1016F000B0FA80F0400910BD0831002030B482B04B
:1017000001248DF80740154B9DF80750186044F2EE
:101710000104A04259609A6014D044F20201884248
:1017200008D072B69DF80730002BFBD162B602B02C
:1017300030BC7047DA60DA6812889A61DA685268F9
:10174000DA61EEE71A611A6992685A611A691268D9
:101750009A611A695268DA61E3E700BF0C31002030
:1017600000B583B002900091019244F201007146ED
:101770006A4600F003F803B000BD00BF2DE9F04158
:10178000054684B00F46164672B6FFF7E3FCFFF736
:10179000A1FC0028FBD1274B274CE41AE40841F2B6
:1017A000010324049D4244F001043DD02FD944F2AA
:1017B00001039D4216D044F202039D422ED12046E1
:1017C000338872681D49FFF7A3F91D4B1B68DB07BF
:1017D00000D500BE32463946284604B0BDE8F04187
:1017E000FFF78CBFD6F80880404603F0DFFB336874
:1017F0001449CDE9013773680093424603462046F9
:10180000FFF726FB20461049FEF754FFDDE7012DC8
:1018100004D120460D49FEF74DFFD6E720463A4653
:101820000B49FFF7F5F8D0E720460A49FEF742FFDB
:10183000CBE700BF58090400C809040028E40300EE
:10184000F0ED00E044E403006CE40300E4E3030093
:1018500080E4030004E40300F0B412F0030412D1A6
:101860004B1CDB000A4D0B4E0B4F34709BB21344E4
:101870002B600A4E0A4D0B4B28803A603470198059
:101880002046F0BC704707242046F0BC704700BFDC
:10189000303100202C310020343100203C31002038
:1018A000383100203A3100202DE9F0472D4F3B8898
:1018B0008B4282B03CD3054602A84FF0000800F8E6
:1018C000018D16460C4600F0B5FB274B274A2848E9
:1018D00019781378B0F800C09DF80700DBB26345B3
:1018E00038BF0133C9B238BF5FFA83F8414523D00E
:1018F00092F800801378DFF88090DBB29C4586BFB9
:101900000133DBB200235FFA88F8137000F0B8FBF4
:10191000D9F800300FFA88F24FEAC20A43F8326071
:10192000534405B174B90020988002B0BDE8F08737
:10193000092002B0BDE8F08700F0A2FB042002B04D
:10194000BDE8F0870B4B38881B68294608FB003040
:1019500022460BF088FED9F800309A440020AAF8FD
:101960000440E2E7383100203C3100202C310020D7
:101970003A31002030310020343100202DE9F84F79
:101980001B4C1C4D22782B789A4226D0DFF86CA095
:10199000DFF86C90184FDFF86CB04FF00008237838
:1019A000DAF800203888D9F80060DBB20FFA83FE3D
:1019B00002EBCE0103FB0060898852F83E30984765
:1019C0002378BBF80010DBB25A1C9942D2B206D978
:1019D000227023782A789A42E1D1BDE8F88F84F802
:1019E000008022782B789A42D9D1BDE8F88F00BFC9
:1019F0003C3100202C3100203831002034310020CF
:101A0000303100203A310020F8B5204A204B002424
:101A1000C2F84041C2F84441C2F84841C2F84C41C2
:101A2000C2F80041C2F804411B6833B31949D2F827
:101A300004550A68AD1A1A6825F07F45AA42274660
:101A40000DD8197CDE69AD1A144419B11F74D3E99D
:101A5000052090471EB133461A68AA42F1D90E49B3
:101A60000E4A0B7812789A4208D00D490D4A41F877
:101A700023404FF48013C2F80031F8BD531CDBB291
:101A8000022B08BF00230B70EFE700BF00100140DE
:101A9000603200205C320020593200205832002091
:101AA0005032002000E100E02DE9F04F8C4A8D49D2
:101AB00013780978DFF85082994285B0D8F800A0F1
:101AC00000F07B810133DBB2022B08BF0023864884
:101AD0001370864A076852F823107B1823F07F435F
:101AE00000240360534626462046A446ABB11A683C
:101AF0008A4200F26581DC68C3F800C0891A10448C
:101B0000DA6934B13D1825F07F45C3E90154DE613F
:101B10001E4613460124002BE9D1002C40F07C81A5
:101B200001230093724B734FDFF8E09143F0010300
:101B3000019355464FF0000B46B3D6E901C1344638
:101B4000F669694B6C481A68ACEB020323F07F43DB
:101B5000834248D80B44236000220121C4E90122BA
:101B6000E2612174002D5DD02A689A424DD2284648
:101B700003E00A689A424FD20846C1699B1A0029BD
:101B8000F7D12360E161C461002ED6D1787839782D
:101B9000884264D00B4603EB43034C1CBA7807EB36
:101BA000C303E1B28A421A79397004BF0021397047
:101BB000022A9C6844D0032A38D0012AE8D1227C2A
:101BC000002AE5D1D3F80CC0C4F804C01969A1609B
:101BD0005869E06099F800009B69A3610028B0D0C3
:101BE00062609446ADE7A2EB0C0222F07F428A428B
:101BF00002D28B1A2360AFE700230122C4E900332D
:101C0000A360E36122746DB12A68C8F80040D31A5A
:101C10002B60E56125468FE7D21A0A602360E161F7
:101C2000C461B1E7C8F80040254685E7002DAFD074
:101C300000232B74ED69002DFBD1C8F80050A5E7F7
:101C40004DB1AC422B4603D1E4E094422FD0134671
:101C5000DA69002AF9D10023237488429AD1BBF1B2
:101C6000000F01D1554553D0002D56D1234E244AA3
:101C70001F4C4FF480334FF400310127C2F880101D
:101C80003C43C6F848334FF43C60C6F808337760ED
:101C9000A047154BB7604FF43C601D60A047194B3F
:101CA0001D70002389F8003005B0BDE8F08FA34215
:101CB00000F09180E0692168D861002800F08680FA
:101CC0002A4603680B440360AA424FF000033978A8
:101CD000787823741CBF15464FF0010BBDE700BF99
:101CE00058320020593200205C320020503200204F
:101CF000A0E4030040310020FEFF7F0000100140FF
:101D000000E100E04D320020603200204C32002023
:101D1000009B002BC5D0002DA8D0434B434A1C6824
:101D2000D2F80465424FD5F800A03978331B23F070
:101D30007F43DD1CB9B93F493F4B4FF48030C2F8B7
:101D400044034FF00108C2F804034FF40030C1F817
:101D5000800143F001030860C2F800804FF43C604A
:101D6000984787F80080AA452CBF04EB0A03631943
:101D70002E4923F07F43C1F84035D1F80425921B4A
:101D80009B1B22F07F4223F07F4303329A4288D983
:101D9000294BD1F80425C1F8402543F001034FF445
:101DA0003C609847234B4FF40032C3F800210023D6
:101DB00089F8003005B0BDE8F08F00260096B1E646
:101DC00074BB521A1A6001230093ABE600233978E2
:101DD0007878237441E71946EA69C8F8002092B977
:101DE000CDE90231114BDFF840C001209860019B22
:101DF00089F80000CCF800204FF43C609847DDE9FA
:101E00000231D8F80020C8690968D86100287FF439
:101E100058AF59E72946DFE7C8F800309A467FE611
:101E2000C8F800309A46CCE75C3200200010014030
:101E30004D32002000E100E0A0E403002DE9F8436A
:101E40001F4D204E204FDFF898804FF480334FF421
:101E500000324FF001090024C6F8802047EA090744
:101E6000C5F848334FF43C60C5F80833C5F8049012
:101E7000B847C5F808904FF43C60C8F80040B84730
:101E8000124A134B13491C601470134B134A0C7005
:101E90000B2114701C8099704FF48012C023C6F877
:101EA000802186F814333260C5F8084586F811336E
:101EB000D5F80435C8F800302046BDE8F88300BFE7
:101EC0000010014000E100E0A0E403004D320020DA
:101ED000603200205832002040310020593200206A
:101EE0005C320020074B9B784BB132B128B10368BC
:101EF000187C20B959745A61704707207047082030
:101F0000704700BF403100202DE9F047264CA378F0
:101F100082B0002B3CD000283AD004293CD9436938
:101F2000002B35D0814602A899F811300026012BEC
:101F300000F8016D0CBF8846B04617468A4600F08F
:101F400079F86378A17822789DF807005D1CEDB2DE
:101F5000A94208BF3546AA4222D003EB430304EB53
:101F6000C3030121114AC3F808901971D2F804255E
:101F70006570C3E9032AC3E9058700F081F80C4BBB
:101F80004FF480123046C3F8002102B0BDE8F0875C
:101F9000082002B0BDE8F087072002B0BDE8F08756
:101FA00000F06EF80420F0E74031002000100140FE
:101FB00000E100E0F0B51A4CA37883B043B338B326
:101FC00043692BB3064602A8002500F8015D35746D
:101FD00000F030F86278A77821789DF80700531C4C
:101FE000DBB29F4208BF2B46994214D002EB42025B
:101FF00004EBC202022196601171637000F040F898
:10200000084B4FF480122846C3F8002103B0F0BDFE
:10201000082003B0F0BD00F033F80420F9E700BF5A
:102020004031002000E100E0014BD3F80405704787
:102030000010014070B4EFF3108472B60D4B9A6833
:10204000AAB90D490D4E01259D60D1F8805035404B
:102050001D60C1F88060D1F884505D604FF0FF339F
:10206000C1F88430027004B962B670BC70470123B5
:102070000370F8E7203B002000E100E0FC06FFBD14
:10208000094B9A687AB170B910B4EFF3108172B647
:10209000064A1C6814605C685460986001B962B6B6
:1020A0005DF8044B70477047203B002000E100E0E2
:1020B000F0B443681BB1384AD468A34246D2002327
:1020C000364F0B807A684FF0010C02F580544FF6C2
:1020D000FF76083294420ED8BCF1020FA1F800C07E
:1020E00007F1140754D07A6802F5805408329442FC
:1020F0004FF0020CF0D913680133EDD0538803334D
:1021000002EB83039C42E7D39588B5420AD0158839
:1021100045B1956803689D4211D05388033302EBA3
:102120008302D7E79C42D7D91A6801321A46D3D026
:102130005D88033503EB85039C42E5D2CCE7184B61
:1021400042601B8903810120F0BC704712699342F1
:10215000B5D813F00305B2D1114A0489128994420B
:10216000ADD104689A689442A9D10C484268934260
:1021700003D902F58052934207D38269934207D96B
:1021800002F58052934203D201250D800120DBE746
:102190000020F0BC704700BFB82A0020A432002005
:1021A00088320020F0B5334C334DB4F802C0626879
:1021B0004FEA8C0606EB0C0305EB830383B05968EA
:1021C00001F58050002A52D05388033302EB83027A
:1021D000904213D8664405EB8605EB68002B3DD092
:1021E000264B2748196802229A80052500230122E0
:1021F000257003B0BDE8F04002F04EB9136801331A
:10220000E8D05388033302EB83038342E2D84FF6CE
:10221000FF7E9788774514D0178897B162605388FE
:10222000164D1748AE882968033300259BB20095E8
:102230009B0001EB86010325257002F08FF803B0A7
:10224000F0BD9842C6D91A6801321A46C2D05F88DA
:10225000033703EB87039842DBD2BBE7084804252A
:102260000122257003B0BDE8F04002F015B901F17C
:102270000802ADE788320020A43200206C33002031
:10228000B82A00202DE9F04FAC4E89B004464FF635
:10229000FF773568002D00F0D9802A78531E052B72
:1022A00067D8DFE803F05931311D1D03002C40F0E1
:1022B000C380DFF8B0C29CF80C209CF80030002AE4
:1022C00000F05281013B8CF80C40062B51D8DFE81E
:1022D00013F0E703F8020302D8015000FB02C80222
:1022E000002C40F0A9802B79012B00F04A81C0F02E
:1022F000DE800DF10C08022B0394C8E90244C8F8F3
:1023000010403ED120463DE0B5F81490AB7D002C46
:1023100000F0A380022BEA8840F2C4804FEA8904CF
:10232000DFF8388204EB090108EB8101D31C0A892C
:1023300013440B81EA884C4408EB84040DF10C082B
:102340006389033B9B1A00226381C8F8082003922B
:10235000C8E90322012015E0002C40F097802B797A
:10236000032B00F2DF80DFE813F080013D0155010F
:10237000600100230DF10C08C8E90333C8F80830E8
:1023800003930F2004902B78023B042B0AD8DFE83C
:1023900003F0472F2303430004238DF80C30EB8810
:1023A000ADF81830664C04F1100554F8043B404673
:1023B00003B19847A542F8D16249634800243460CC
:1023C00001F014FA0121614801F0D8FA00287FF4E5
:1023D00060AF09B0BDE8F08F03238DF80C30EB88B7
:1023E000ADF818302B89ADF81A30EB680593D9E7B2
:1023F00002238DF80C302B89ADF81830AB88ADF87E
:102400001A30EB680593AB7DA3F10603B3FA83F3AF
:102410005B098DF81C30C5E705238DF80C30C1E74A
:1024200001238DF80C302B89ADF81830AB88ADF84E
:102430001A30EB680593B5E70DF10C080023C8F8D6
:1024400008300393C8E9033301209BE73D493E4828
:1024500001F09EF9054630601FE74FEA8904DFF876
:10246000FC8004EB090108EB8101B1F808A0496880
:1024700001EB8A0A062B00F2B682DFE813F0CC01EA
:102480009301A501B80141016C0186010DF10C0811
:102490002F4A002353600393C8E90233C8F8103071
:1024A00001206FE7DFF8B4804FEA890443E7022395
:1024B0002B71CDE904440DF10C08EB680393404601
:1024C0000DF10A01FFF7F4FD002800F0C181049925
:1024D000204A8B88EB800B882B811F4800940423B3
:1024E000BDF80A4001F03AFF002840F0DE821B4BA5
:1024F00004EB840403EB84040123237469E70123C0
:102500009A001A4408EB82030020596800900823BF
:1025100008F82200124A104801F020FF00283FF47A
:1025200058AF35680A4A0DF10C0800235360039335
:10253000C8E90233C8F810300E2023E7A03200208B
:102540007032002098320020583300206833002079
:1025500080320020A8E40300B82A0020A432002022
:10256000ACE4030088320020072B00F28382DFE80E
:1025700013F0FA01810281029D01E60178017801E0
:10258000C001BF4B1B78002B00F05381DFF8F4E251
:10259000BEF80490B9F1010F15D8DFF80C8309EBF0
:1025A000890208EB8202043212F8043C002B00F08E
:1025B000088209F1010399B201299946AEF8043065
:1025C00002F11402F0D90DF10C0808220021AD48E7
:1025D0000BF054F80020C8F808000390C8E9030085
:1025E0003568CFE6DFF8C08298F80030022B00F0A3
:1025F000688298F81430022B81D0A14B0DF10C08A1
:10260000002001221A7003905860C8E90200C8F83F
:102610001000B7E69C4A9D481168002302242B71E4
:102620009480012201F038FF78E7974C984A21689E
:102630009648DFF874824FF0000985F8049008236B
:10264000CDF8009001F08AFE924B25685B88A18846
:1026500003EB830308EB830208F82390536823609D
:10266000022355601181A38058E7874B8A4A196875
:10267000864801232B7100230093082301F06EFE8E
:102680004CE7BCF80230DFF8208203EB830308EB51
:102690008308D8F80C30002B00F0DC817A4B7B48A3
:1026A000196802229A8005228CF80020002301225A
:1026B00001F0F2FE00283FF48CAE0DF10C0800236F
:1026C00041F61D523568C8F808300393C8E9033352
:1026D000904208BF184655E6DCF804206A48538843
:1026E00084880168694801EB840103330024009465
:1026F0009BB203249B008CF8004001F02FFED9E729
:10270000664BAA6966491A604FF0000B1846C3F879
:1027100004B0FFF7CDFC002800F0CA810223AB759E
:1027200004235146CDF800B0EA18584801F016FECF
:1027300000283FF44EAEAB7DEA88022B4FF00E002E
:1027400026D84C4408EB8408B8F80A30033B9B1A9F
:10275000A8F80A30B1E7524B504AB3F800A05168CC
:102760004A48504A00234FF0060C85F816C00093E3
:10277000042301F0F3FD0028DDD10AEB8A0A08EBFF
:102780008A08012388F8103023E6EA8841F61D50B4
:1027900004EB090108EB8101D31C0A8913440B8166
:1027A000EA88CEE7032A0CBF052306230022AB7577
:1027B0000AF104010092042305F10802334801F0F4
:1027C000CDFD0028B7D104E62B693048002B14BF9B
:1027D000032301230022AB750AF1080100920423B0
:1027E00005F10C0201F0BAFD0028A4D1F1E5EB8857
:1027F0002A6926484FF0010C85F816C04FF0000CEE
:102800000AF10C019B00CDF800C001F0A7FD0028E3
:102810003FF4DFAD8FE702230022AB750423009263
:102820005146EA18194801F099FD00283FF4D1AD4E
:1028300081E70DF10C080822214612480AF01EFF1C
:102840000394C8E90244C8F810403568022099E5AD
:102850000A200023C8E90033C8E90233C8F8103061
:1028600090E5094B0C4A1968084800230093CCF8FE
:10287000043007238CF80030082301F06FFD19E7BE
:10288000803200207C3300206C330020B82A0020E6
:10289000ACE4030088320020B4E40300643200207A
:1028A00078330020A8E40300A4320020884ADCF832
:1028B00004109388498803330B44022193808CF8D9
:1028C0000010FFF76FFCF5E6BCF80220DFF810827D
:1028D0009300134408EB830806200023D8F8041063
:1028E0007C4A00938CF8000008237B4801F036FDF9
:1028F000E0E601238CF800309CF80A304BB1DFF899
:10290000E081D8F80C3000228CF80A20002B00F06F
:10291000AB809CF80B30002B43D0DFF8C481D8F893
:10292000203000228CF80B20002B3AD198F824306C
:10293000BBB30123ACF80230FFF734FCBAE6BCF8B5
:102940000220DFF89C81624C9300991808EB81010A
:1029500020684D68B4F804E0486002202560A1F8C2
:1029600008E0A080B5E7DFF87881BCF8081098F897
:10297000142098F80030B2FA82F252090131B3FA09
:1029800083F35B098CF80B20ACF8081000220121BE
:102990008CF80A30ACF802208CF80C208CF800106F
:1029A000ACE70DF10C080020C8F808008CF8000016
:1029B000ACF80200CCF804000390C8E903003568C5
:1029C000E0E41368DEF8001003F5805C03F1080A08
:1029D000002968D04B88033301EB83018C4505D86F
:1029E000CEF80040E5E5EA880F20D1E60B68013318
:1029F000F6D04B88033301EB83039C45F0D38888E2
:102A0000B8421AD0B1F800B0BBF1000F15D0EB8876
:102A1000CEF800108342DBD1002300932F4A2E48CA
:102A2000042301F09BFC00284DD109EB890908EB38
:102A30008908012388F81030CBE49C45D0D9196867
:102A400001311946CCD05888033003EB80039C45F4
:102A5000D5D2C5E704228CF80020D8F804101E480F
:102A6000012201F019FD25E698F81020002A3FF414
:102A700050AF5FE7013B062B3FF67BAC01A252F85B
:102A800023F000BFA12A0300C3280300D9260300B6
:102A90008326030073230300C9280300632803006F
:102AA0009CF80A302AE7514698E735680E20D0E6B0
:102AB0000DF10C080390C8E90200C8F810000A20C4
:102AC00060E400231CE535680E200DF10C08C0E61B
:102AD0006C330020ACE40300B82A0020A8E4030013
:102AE000A43200204068FFF7CDBB00BF38B5084BCB
:102AF0001A68042A0AD01D68064C024601211846AD
:102B000044F8252000F02EFF002038BD0C2038BDF1
:102B100074330020703200202DE9F04FAB4C8BB0A5
:102B200022780023CDE90533CDE90733099372B14B
:102B3000A74C04F1100554F8043B05A803B19847CD
:102B4000A542F8D1002528460BB0BDE8F08F201D26
:102B500002F0FF0600F01EFF07460028F2D140F603
:102B6000F8731B685D1C00F0FA804FF08052116909
:102B70005269DFF884829749C8F810304046A3F5BF
:102B800040530022C8F80C3001F0BAFB054600287B
:102B9000D9D11C238C2290499048DFF860A200F024
:102BA00081FDD8F80C90DFF85882029609F5405361
:102BB00048464FF0030B2A469946002800F09D80B6
:102BC000036887498B4240F09880436885498B426F
:102BD00000F0188101318B4240F08F80029B63B17D
:102BE00002EB820C08EB8C0102260132DAF800308D
:102BF00008F82C6092B24B600E818168CAF8000020
:102C00004FF0020C0131AAF804C000F5805300F126
:102C100008062DD04189033106EB81008342C0F0C4
:102C2000B58060464FF6FF7E0192B6F804C0F445C9
:102C30000FD0B6F800C0BCF1000F0AD06A4AD6F82F
:102C400008C01268944504D9674AC2F800C0718868
:102C50000331084480B2AAF804007188033106EBFE
:102C60008106B34200F286800228019A40F0318149
:102C700004210F43994518469FD1BBF1010F40F243
:102C80008B80FFB2022F00F08780062F00F08E802D
:102C9000002F00F0818004A9504800F03DFD1C2267
:102CA000044600210AF0EAFC002C00F01081012308
:102CB000013F23700A2F09D8DFE807F0160816082D
:102CC0001C081C08190619000223237104A9434893
:102CD00000F04EFD0121454800F038FE00287FF449
:102CE00031AFFFF7CFFA2EE700232371EEE703237E
:102CF0002371EBE701232371E8E700F580530146D8
:102D000001E08B4214D00E68013601F10401F8D0C5
:102D100002EB820108EB81060BF1FF3B01324FF021
:102D2000030C1FFA8BFB92B208F821C07060A1E778
:102D3000DAF8001091B32E4E02EB820108EB810C01
:102D40007280022602F1010E08F821601FFA8EF24D
:102D5000CCF80400ACF8086047F001078AE7254B7F
:102D60004FF080521B6811695269581C08BF02FB62
:102D700001F3FEE6316801313FF476AF718803312B
:102D800006EB810C6345BFF450AF019A4FF48061AC
:102D9000AAF8041008216CE70B25D4E60221AAF852
:102DA00004100121CAF800000291D5E7084D012264
:102DB0000023227005F11006636055F8043B05A856
:102DC00003B19847AE42F8D1BCE600BF8032002084
:102DD00070320020C8E60300CC32002058330020B7
:102DE000DEC0ADDEFE011EF19C3200206833002003
:102DF0008832002014100010B82A00206C33002004
:102E0000A432002093000393134408EB830C0021A9
:102E100008F823104FF00203ACF80830CCF8040097
:102E20008668013600F5805300F1080140D04089E2
:102E300000F1030E01EB8E0E73452FD30226019293
:102E4000E646B1F804C04FF6FF72944537D0B1F8AA
:102E500000C0BCF1000F32D01F4AD1F808C0126880
:102E6000944505D91C4ABEF80860C2F800C04888DD
:102E700006440336B6B2AEF808604888033001EB6A
:102E800080018B4219D90868013016D0488800F1BA
:102E9000030C01EB8C0C6345D3D2019A03991144C6
:102EA00008EB81014FF480604FF001060E74088139
:102EB000013292B247F00207DCE6019AF8E74FF0E0
:102EC00001028EF810204888BEF80860D0E7082577
:102ED00039E60821CDE600BF9C32002008B301B3DB
:102EE00070B582B00C460DF106010546FFF7E0F81B
:102EF000A0B1BDF806000C4B6E6800EB800003EB40
:102F0000800001210C3000F02DFD26606B6801224D
:102F10000C3300206360AA7202B070BD0A2002B0B8
:102F200070BD0520704700BFA4320020E8B110B585
:102F300082B00DF106010446FFF7BAF890B1BDF872
:102F400006300C4A03EB830302EB8303DA6872B1A9
:102F5000A27A62B1DA680021013A0846DA60A17209
:102F600002B010BD0A2002B010BD05207047062037
:102F700002B010BDA4320020484B1B78002B32D089
:102F8000002934D00A884FF6FF739A4229D04B8823
:102F90003BB34B689B072CD12DE9F043B1F8088077
:102FA00008F103039BB240F2FD32934283B01CD878
:102FB0003B4A17783FB95689148934441C44A4B25B
:102FC000B4F5806F17D3147D3CB9D68B948B344401
:102FD0001C44A4B2B4F5806F5DD3072003B0BDE8F4
:102FE000F08304207047022070470920F6E705208F
:102FF000704703207047BC464FEA8C09E14402EB5E
:10300000890933440C46054601A92648A9F80A3027
:1030100000F082FB1C22064600210AF02FFB5EB363
:1030200002234FF00009B782337086F81690636868
:10303000336101211C4800F095FCF0602388338146
:103040006388B38001A9A6F80A90A6F806801548FF
:1030500000F08EFB45B1C5F80490F268134B2A606E
:103060001B8985F80A902B810121114800F06EFC24
:10307000044660B10020B1E7B9F80A30C8F57F48CE
:1030800008F1FD089844A9F80A800820A6E7FFF790
:10309000F9F82046A2E70127BC46ADE780320020C0
:1030A000A4320020583300209C32002088320020B7
:1030B00068330020002836D0484B1B78002B30D0D6
:1030C000002930D00A884FF6FF739A422FD04B88E0
:1030D0006BB34B689B0728D12DE9F043B1F80890FA
:1030E00009F103039BB240F2FD32934283B020D832
:1030F0003B4A15783DB9578914893C441C44A4B215
:10310000B4F5806F17D3147D3CB9D78B948B3C44B6
:103110001C44A4B2B4F5806F5BD3072003B0BDE8B4
:10312000F083022070470520704703207047042079
:1031300070470920F2E7A846AC464FEA8C05654483
:1031400002EB85053B4406460C4626486B8101A9E7
:1031500000F0E2FA1C22074600210AF08FFA57B36A
:1031600000250323A7F814803B70BD7563683B619D
:1031700001211D4800F0F6FBF86023883B8163883D
:10318000BB800423A7F80690BB753368BB6101A917
:103190007D81144800F0ECFA7560FA68134B3260D8
:1031A0001B89B57233810121114800F0CFFB044621
:1031B00058B12846B2E76B89C9F57F4909F1FD0985
:1031C0009944A5F80A900820A8E7FFF75BF8204685
:1031D000A4E74FF00108C446AFE700BF80320020EB
:1031E000A4320020583300209C3200208832002076
:1031F00068330020184B1B7823B34FF6FF739842B7
:103200001ED070B582B001A90446144800F084FABB
:103210001C22054600210AF031FAADB10523012632
:10322000EC8001A92B702E710C4800F0A1FA3146F8
:103230000B4800F08BFB044648B1002002B070BD83
:103240000420704702207047082002B070BDFFF7CD
:1032500019F8204602B070BD80320020583300209B
:10326000683300202DE9F043344C2478002C60D0E2
:103270003AB333B39F88012F5ED8314C07EB870CEC
:10328000013704EB8C0CBFB24FF6FF7E4FF0000805
:103290009CF8004074B91C68DCF8045005F58056B1
:1032A000002C43D06588033504EB8504B4420BD36E
:1032B000C3F80080022F9F800CF1140C3CD0022731
:1032C000E6E70520BDE8F08325680135F0D0658884
:1032D000033504EB8505AE42EAD3B4F80490F1451A
:1032E00015D0B4F80090B9F1000F10D01C60A5887B
:1032F0008542D1D125888D42CED1A168116019684F
:10330000104B51601B8913810020BDE8F083AE4251
:10331000CED92C6801342C46CAD0B5F8029009F1F8
:10332000030905EB8905AE42D7D2C1E705F10804D0
:10333000BCE70220BDE8F0830A20C3E7803200200A
:10334000A432002088320020334B1B78002B5CD045
:1033500051B34AB32DE9F0419588012D5AD82F4F2A
:1033600005EB850307EB830701353B78ADB24FF6DC
:10337000FF7C4FF0000E43B1022D958007F114073A
:1033800048D03B780225002BF6D113687C6804F501
:103390008056002B3BD05C88033403EB8403B3429C
:1033A00004D3C2F800E0E7E7052070471C68013449
:1033B000F7D05C88033403EB8404A642F1D3B3F85E
:1033C0000480E04512D0B3F80080B8F1000F0DD0B2
:1033D00013601C888442D9D19B680B601268104B23
:1033E0004A601B890B810020BDE8F081A642D8D934
:1033F000236801332346D4D0B4F8028008F10308CF
:1034000004EB8804A642DAD2CBE70220704704F12D
:103410000803C4E70A20E7E780320020A432002036
:1034200088320020334B1B78002B5CD051B34AB359
:103430002DE9F0419588012D5AD82F4F05EB8503D2
:1034400007EB830701353B78ADB24FF6FF7C4FF0B9
:10345000000E43B1022D958007F1140748D03B7848
:103460000225002BF6D113687C6804F58056002BEA
:103470003BD05C88033403EB8403B34204D3C2F82B
:1034800000E0E7E7052070471C680134F7D05C884E
:10349000033403EB8404A642F1D3B3F80480E0457F
:1034A00012D0B3F80080B8F1000F0DD013609C88E3
:1034B0008442D9D19B680B601268104B4A601B890B
:1034C0000B810020BDE8F081A642D8D923680133E2
:1034D0002346D4D0B4F8028008F1030804EB880432
:1034E000A642DAD2CBE70220704704F10803C4E712
:1034F0000A20E7E780320020A43200208832002032
:1035000020B119B103680B60002070470520704797
:10351000614B1B78002B00F0AE802DE9F04F044684
:1035200085B0002800F0B480122200210AF0A6F82D
:10353000DFF868E1608821896589DFF864910323F9
:103540007246238000264FF6FF7C4FF00108138956
:103550005789D2F804A03B449BB2BAF1000F04D0C3
:10356000DAF800704F4500F088802788013F2780F7
:10357000B70037440EEB87071D44D7F80CA0A78986
:1035800050446080B2F80AA06581C3F580639BB2A5
:103590009F42514438BFA3812181D2F804A00AF18F
:1035A00008031F4603930AF580530193DAF80830A5
:1035B000013343D0BAF80AA00AF1030A07EB8A0ADA
:1035C0003B46019F574525D30292B3F804A0E2453C
:1035D0003BD0B3F800A0BAF1000F36D0B4F804A085
:1035E0000AF1010AA4F804A0B3F802A00AF1030A40
:1035F00003EB8A039F4220D91A6801321DD0B3F829
:1036000002A00AF1030A03EB8A0A5745DDD2029AA7
:1036100003930197039BB4F80EB0B4F806A084F8A6
:103620001080FB1A0BEBA3030AF1010AE381A4F853
:1036300006A014322EB9012689E7029A1432002E10
:10364000F9D0002005B0BDE8F08FB4F806B0B4F8AA
:103650000EA00BF1010BA4F806B0B3F802B00AF10A
:10366000030ADA44A4F80EA0B3F802A00AF1030A90
:1036700003EB8A03BEE702207047DAF8047007F113
:103680006E6707F5FF370237012F7FF671AF6CE7E2
:10369000052005B0BDE8F08F80320020A432002064
:1036A000DEC0ADDE99B110B4B2FBF3F403FB142419
:1036B000A4B244B9C0E9001484608281C381204669
:1036C0005DF8044B704709205DF8044B70470E20ED
:1036D000704700BF82B050E8022FC188B2EB324F72
:1036E0004FF0000317BF92B241EA014142EA0141A3
:1036F00004E04268B2EB324F08BF012340E80212F7
:10370000002AE8D18DF807309DF80730002B0CBF58
:103710001120002002B0704730B482B050E8013F61
:103720009DB2C48925448489A54228BF2D1B0489E4
:10373000A54202BFBFF32F8F002207E0C5EA0305B1
:1037400040E80154002CE9D14FF001028DF803202C
:103750000193019B9DF803200B602AB10B88006840
:10376000184402B030BC704702F0FF031846F8E777
:103770000A884B889A4201D00020704750E8012FF8
:10378000C2EA024240E80123002BF7D10120704732
:1037900030B482B050E8023F1FFAA3F5C488A542B6
:1037A00002BFBFF32F8F00220DE0C4892544848916
:1037B000A54228BF2D1BC3EA054540E80254002C52
:1037C000E8D14FF001028DF803200193019B9DF891
:1037D00003200B602AB14B880068184402B030BC4B
:1037E000704702F0FF031846F8E700BF0A884B88CD
:1037F0009A4201D00020704750E8022FC2EA2242CC
:1038000040E80223002BF7D10120704701F01F028E
:103810004B09012100EB8300914000F07FB800BF0D
:1038200010B5012301F01F04490900EB810003FAE0
:1038300004F100F067F8E04000F0010010BD00BFA7
:1038400001F01F0201234909934000EB8100D94395
:1038500000F070B84B0901F01F0150F82300C84078
:1038600000F00100704700BF2DE9F84F01F1FF396A
:103870004FEA591300F104090F46064609EB830984
:10388000044600254FF0010823686FEA030B9BFAFA
:10389000ABFBBBFA8BFBBBF1200F20D0AB445F45E9
:1038A0000CD81CE02368DB4393FAA3F3B3FA83F349
:1038B000202B05EB030B12D05F4510D90BF01F0A2C
:1038C0004FEA5B1008FA0AF106EB800000F01AF8E4
:1038D00020FA0AF0C307E5D45846BDE8F88F04344F
:1038E0004C4505F12005CFD1BB465846BDE8F88FC1
:1038F00050E8002F0B4640E8003C9CF0000FF7D149
:103900001046704750E8002F42EA010340E8003CAF
:103910009CF0000FF6D11046704700BF50E8003F02
:1039200043EA010240E8002C9CF0000FF6D110465B
:10393000704700BF50E8003F03EA010240E8002C56
:103940009CF0000FF6D11046704700BF50E8002FE2
:1039500002EB010340E8003C9CF0000FF6D110465A
:10396000704700BF50E8003F03EB010240E8002C25
:103970009CF0000FF6D11046704700BF50E8003FA2
:10398000A3EB010240E8002C9CF0000FF6D110469A
:10399000704700BF012350E800CF4CEA030240E823
:1039A000002191F0000FF6D160467047012350E8E6
:1039B000002F42EA030C40E800C191F0000FF6D15D
:1039C00060467047002350E800CF0CEA030240E84D
:1039D000002191F0000FF6D160467047B8B130B4C5
:1039E000D0E90112521A0468D2B2531E2160DBB230
:1039F00042B101680A685C1E551C0D601370E3B289
:103A0000FF2BF6D103680020187130BC70470E20E0
:103A1000704700BFF0B583B002AB002503F8015D2D
:103A200004461846FEF706FBD4E900311A688A42BC
:103A300010D9511E19602168A3680F6812F8015C43
:103A40000A79268AE068DB1BDBB29A4206FB050591
:103A500038BF0B719DF80700FEF712FB284603B034
:103A6000F0BD00BF30B583B002AB002203F8012DDA
:103A7000054618460C46FEF7DDFA2A681368591CFD
:103A80001160E9682A8A641AB4FBF2F41C709DF88C
:103A90000700FEF7F5FA03B030BD00BF826842B1FF
:103AA00010B5044643690168006998470023A36084
:103AB00010BD70470EB400B582B0039929B102AAB7
:103AC00004AB42F8043D00F0A9F802B05DF804EB45
:103AD00003B070472DE9F04F924683B051450F4631
:103AE00005461E46DDE90CB2C0F092800B464FF051
:103AF0000108B3FBFAF39A4508F10108F9D9B0457A
:103B000038BFB04612F00109A96802D1BBF1000F1D
:103B100054D1012402E0013E0AFB04F4012EFAD83C
:103B2000B7FBF4F08245F7D93B4E02E0A968B7FB3A
:103B3000F4F0335C2A680A2B04FB107702EB010EC9
:103B400001F1010029D0A8608EF80030D5E90131DB
:103B5000994202D32846FFF7A1FFB4FBFAF4002CE8
:103B6000E4D1B9F1000F15D0BBF1000F12D0C3455D
:103B700010D92024AB682A68591CA960D454D5E90F
:103B800001329A420BF1FF3B14D2BBF1000F01D07E
:103B9000C345EFD103B0BDE8F08FA8604FF00D0032
:103BA0005054D5E9011088421DD2296801EB000E5E
:103BB0000130C8E72846FFF771FFE6E7930722D4F4
:103BC0002024C345A5D92B684A1CAA605C54D5E9BA
:103BD000013199420BF1FF3B10D2BBF1000F98D09D
:103BE000C345F0D195E728460193FFF757FFAA6830
:103BF0002968019B501C01EB020EA4E72846FFF741
:103C00004DFFA968E9E7002E0CBF30242024D8E737
:103C10004FF0010873E700BFBCE40300002900F087
:103C2000B9822DE9F04F054687B091460C460E78D3
:103C3000DFF8C8A64FF00D0B13E0AB6828680A2E1A
:103C400003F1010200EB030100F04B82AA600E7049
:103C5000D5E901329A4280F01B812678002E00F0CF
:103C60001E810134002E00F01A81252EE5D1234655
:103C7000002713F8012B2D2A00F0E380302A00F0F2
:103C8000E4802B2A00F0D4802A2A00F00D81A2F1D2
:103C90003006F1B2092903D97DE2A1F130060346CD
:103CA000184606EB860110F8012BA2F13004092C0E
:103CB00002EB4101F1D92E2A00F002814FF00008F9
:103CC000013301E013F8012B02F0FB0168291C46C7
:103CD000F8D0253A532AC0D801A353F822F000BFE8
:103CE000CB4003005B3C03005B3C03005B3C0300F8
:103CF0005B3C03005B3C03005B3C03005B3C03005C
:103D00005B3C03005B3C03005B3C03005B3C03004B
:103D10005B3C03005B3C03005B3C03005B3C03003B
:103D20005B3C03005B3C03005B3C03005B3C03002B
:103D30005B3C03005B3C03005B3C03005B3C03001B
:103D40005B3C03005B3C03005B3C03005B3C03000B
:103D50005B3C03005B3C03005B3C03005B3C0300FB
:103D60005B3C03005B3C03005B3C03005B3C0300EB
:103D70005B3C03005B3C03005B3C03005B3C0300DB
:103D80005B3C03005B3C03005B3C03005B3C0300CB
:103D90005B3C03005B3C03005B3C03005B3C0300BB
:103DA0005B3C03005B3C03005B3C0300AF40030053
:103DB0005B3C03005B3C03005B3C03005B3C03009B
:103DC0005B3C03005B3C03005B3C03005B3C03008B
:103DD0005B3C03005B3C0300533E030035400300A3
:103DE0005B3C03005B3C03005B3C03005B3C03006B
:103DF000354003005B3C03005B3C03005B3C03007D
:103E00005B3C03005B3C03005B3C03009D3F030005
:103E10005B3C03005B3C0300153F03005B3C03007D
:103E2000F93E03005B3C03005B3C0300AF40030032
:103E300047F004071C46234613F8012B2D2A7FF474
:103E40001DAF47F001071C46F5E747F002071C4687
:103E5000F1E7D9F800301A1DC9F800201E78AB68C8
:103E60000A2E0CD12A68591CA96002F803B0D5E9C2
:103E70000123934203D32846FFF710FEAB682A685C
:103E8000591CA960D654D5E901329A42FFF4E5AE37
:103E90002846FFF703FE2678002E7FF4E2AE2B7B48
:103EA00023BB07B0BDE8F08FD9F80020111DC9F879
:103EB0000010166862782E2A04F102007FF4FEAE2C
:103EC0005A78A2F13003092B00F2BD814FF00008AF
:103ED00008EB880802EB480810F8012FA2F1300324
:103EE000092BA8F13008F3D90346E9E6284607B0C4
:103EF000BDE8F04FFFF7D2BDD9F800301A1DC9F860
:103F0000002019680197434600960A222846FFF7C9
:103F1000E1FDA2E6D9F800301A1DC9F80020D3F857
:103F20000080FB0700F1E880B8F1000F00F0A181EC
:103F3000404609F0ABFB0746BE4215D9A6B1202189
:103F400000E08EB1AA682B68501CA8609954D5E98E
:103F500001329A4206F1FF3604D328460391FFF757
:103F60009DFD0399BE42ECD108F1FF3818F8016FAE
:103F7000002E3FF472AEAB6828680A2E03F10102EE
:103F800000EB030100F09081AA600E70D5E90132C8
:103F90009A42EBD32846FFF781FDE7E7D9F80020E6
:103FA000131DC9F80030AB6829681768581C302207
:103FB000A860CA54D5E90123934280F0E6802A68BC
:103FC000581C7821A860D154D5E90123934280F090
:103FD000D7800F2F03D93A4612090F2AFCD84FF089
:103FE00080560DE0AA6081F80080D5E901329A423E
:103FF00002D32846FFF752FD36093FF42EAEAB68D8
:10400000B7FBF6F21AF802802868B8F10A0F06FB2F
:10401000127700EB030103F10102E3D1AA6000F87B
:1040200003B0D5E901329A4280F049812B68991892
:104030000132D7E7D9F800301A1DC9F800201968F5
:1040400081EAE173A3EBE173092B40F30E81AA48E7
:104050000122A0FB03C3DB08092B02F10102F8DCFB
:104060004245134638BF4346039307F00203002E30
:1040700040F09580002B00F0B780B8F1000F00F001
:10408000F680F80740F1B0800029C0F2FF807A077F
:1040900000F1C88007F00303022B00F0A780CDE9F0
:1040A000006743460A222846FFF714FDD5E5D9F8F4
:1040B00000301A1DC9F80020196801974346009680
:1040C00010222846FFF706FDC7E5AB682A68581C92
:1040D0002521A860D154D5E901329A42FFF4BDAD43
:1040E000D6E6AA6000F803B0D5E901329A423FD281
:1040F000296811440132A9E54146A1EB080311F8F2
:10410000017BD7B1AB68D5F800C00A2F03F10102DB
:104110000CEB030000F0AF80AA600770D5E9013214
:104120009A42EAD328460391FFF7B8FC0399A1EB22
:10413000080311F8017B002FE4D19E427FF68DAD7C
:10414000202702E0002E3FF488ADA9682A68481CA9
:10415000A8605754D5E90121914206F1FF3604D3F6
:1041600028460393FFF79AFC039BB342EAD174E518
:104170002846FFF793FCAB6829685A1C194465E58B
:104180002846FFF78BFCAB6823E72846FFF786FC41
:10419000AB6814E770471846002623468BE50029D4
:1041A00020DB7A071ED41BB1B8F1000F3FF46CAFCF
:1041B000F8073FF569AFBEB1039BB342BFF464AFEC
:1041C0002023AA68501CA86028688354D5E90102FE
:1041D000824206F1FF3640D236B1039AB242F0D1A4
:1041E000164651E7013EDEE700264DE7B8F1000F25
:1041F0007FF455AF002E6AD0039BB342BFF44FAF9C
:104200003023AA68501CA86028688354D5E90102AD
:10421000824206F1FF3618D2002E58D0039AB242DD
:10422000EFD13CE7AA68531CAB602B682B20985455
:10423000D5E901329A42FFF42DAF28460491FFF7E9
:104240002DFC049926E7034638E52846CDE90413FA
:10425000FFF724FCDDE90413DEE72846CDE904136B
:10426000FFF71CFCDDE90413B6E70122F8E6464639
:104270000AE7474660E6AA600CF803B0D5E90132C8
:104280009A4226D22B689818013245E7AA68531C37
:10429000AB602B682D209854D5E901329A42C1F1C8
:1042A0000001FFF4F7AEC8E7AA6000F803B0D5E953
:1042B00001329A4217D229681144013264E6284635
:1042C000FFF7ECFBA9682B684A1C19448AE6002614
:1042D000E5E628460391FFF7E1FBA8682B68039900
:1042E000421C184418E72846FFF7D8FBAB6829683A
:1042F0005A1C194448E600BFCDCCCCCCBCE403002A
:1043000010B582B038B1B9B101600B68114602B086
:10431000BDE8104018470B480B4C0C4B0C4A0D499C
:10432000001BC0080E24000440F001000094FCF7BC
:1043300071FC0E2002B010BD0248034C034B064A2C
:10434000EDE700BFE809040058090400CCE40300CD
:1043500080E5030088E50300B4E503002DE9F041A2
:1043600082B0002854D0002A64D0D0F800C0BCF13C
:10437000000F69D01C46002B33D04768D7F8048063
:10438000B3FBF8F708FB1737002F3CD18F0723D179
:1043900012F0030F53D1C768B94211D23248334CDF
:1043A000334B344A3449001BC0081024000440F049
:1043B00001000094FCF72EFC204602B0BDE8F0811D
:1043C0004E1E05693444AC42E8D8DCF80C40A446E3
:1043D00002B0BDE8F04160472348244C244B274AF3
:1043E000E0E72148214C224B254A2349001BC00805
:1043F0000924000440F001000094FCF70BFC204667
:1044000002B0BDE8F0811848184C194B1D4AECE782
:104410001548164C164B1C4A1749001BC0080E24A1
:10442000000440F001000094FCF7F4FB204602B0C9
:10443000BDE8F0810C480D4C0D4B144AECE70A48DE
:104440000A4C0B4B124AADE7084C0748084B114A7F
:104450000949001BC0080824000440F00100009432
:10446000FCF7D8FB2046A8E7E80904005809040037
:10447000E0E4030084E6030088E5030048E6030067
:10448000C4E503001CE6030080E5030014E6030016
:1044900060E6030008E60300F0B583B0002843D0CF
:1044A000D0F800C0BCF1000F4ED03AB34768D7F83F
:1044B00000E00EF1FF370F4231D1C768B94210D288
:1044C00029482A4C2A4B2B4A2B49001BC008102490
:1044D000000440F001000094FCF79CFB204603B070
:1044E000F0BD4D1E04690EFB0255A542E8D8DCF86C
:1044F0001040A44603B0BDE8F04060471B4C1A488A
:104500001B4B1E4A1C49001BC0080924000440F034
:1045100001000094FCF77EFB204603B0F0BD12487A
:10452000124C134B164ACFE7104C0F48104B154A4C
:104530001149001BC0080E24000440F00100009443
:10454000FCF768FB2046CAE7084C0748084B0E4AB0
:104550000949001BC0080824000440F00100009431
:10456000FCF758FB2046BAE7E809040058090400A4
:10457000F4E4030030E5030088E50300C4E503002C
:1045800008E5030080E5030008E6030029DF704723
:1045900028DF70470846704700207047024B187AA2
:1045A000003018BF0120704720340020034B187AD8
:1045B0000122B0FA80F05A7440097047203400207C
:1045C00008B510461A4609F04EF8002008BD00BF95
:1045D00008B514220021044809F050F80348FFF7F9
:1045E00079F8002008BD00BF2034002010340020DE
:1045F00010B5094C094B43602046FFF7CBF940B991
:1046000008F0C0FE1C2320748C2205490548FFF7E2
:1046100049F8002010BD00BF20340020BCE6030094
:10462000843300201034002030B55E4C237A87B0EC
:10463000002B3AD05C4B1B68022222721A79002AA6
:104640003ED0012A0CD1D3E903021044FFF7A0FFAA
:10465000002849D0112803D10123237207B030BDAF
:1046600019688A68C2B1002268460092C0E9022235
:104670000325026101959A6805921A79002A4BD0A8
:10468000012A07D102228DF80020DA681203029273
:104690005B6904938B68984700234449444823721C
:1046A0006360FFF7A3F807B030BD40494048FFF70B
:1046B0006FF83D4A034610600028BDD16060F2E704
:1046C000D3E90525521BB2F5805F28BF4FF4805215
:1046D000D3E903109208012A38BF01222944284453
:1046E000FFF754FF0028B5D1227C002ADBD1227AC3
:1046F000002AD8D0022A0AD1E0601A79DAB1012A58
:1047000005D1D3E9042101328A421A611FD0637CAA
:1047100073B108F027FEC6E701228DF800201A6960
:104720000292DA6803925B6904938B689847B3E757
:10473000FFF77AFFB7E7D3E90512881AB0F5805F73
:1047400094BF121802F5805291429A61DFD1002283
:10475000227219688868A8B168460092C0E90122EF
:10476000C0E903229A6805921A7982B1012A07D119
:1047700002228DF80020DA68120302925B6904932A
:104780008B68984709490A48FFF730F8BFE70122CC
:104790008DF800201A690292DA6803925B6904932B
:1047A000EEE700BF203400203834002034340020ED
:1047B000103400202DE9F04782B082468946174820
:1047C00001A990461F46FEF7A7FF10B3044600213B
:1047D0001C220D46124E08F051FF0A9BC4F800A09F
:1047E000A360C4E90389676101A925710B48FEF73D
:1047F000BFFF301DFFF7CEF838B9747C34B9FFF72E
:1048000013FF204602B0BDE8F087284602B0BDE89D
:10481000F087042002B0BDE8F08700BF103400200C
:10482000203400202DE9F04383B081460D46164820
:1048300001A917469846FEF76FFF08B304461C22ED
:10484000002108F01BFF114EC4F8009001232D0B2E
:10485000C4E90285676101A923710B48FEF788FF4F
:10486000301DFFF797F838B9747C34B9FFF7DCFED8
:10487000204603B0BDE8F083002003B0BDE8F0831C
:10488000042003B0BDE8F083103400202034002061
:1048900000F0FD03012B00D0704730B5604CA0F153
:1048A0000100B0FA80F0237A4009002287B020741A
:1048B0006274002B3AD05B4B1B68022222721A7979
:1048C000002A3ED0012A0CD1D3E903021044FFF79D
:1048D0005FFE002849D0112803D10123237207B0BD
:1048E00030BD19688A68C2B1002268460092C0E9EA
:1048F00002220325026101959A6805921A79002A1D
:104900004BD0012A07D102228DF80020DA68120369
:1049100002925B6904938B6898470023424943489D
:1049200023726360FEF762FF07B030BD3E493F4827
:10493000FEF72EFF3B4A034610600028BDD16060A1
:10494000F2E7D3E90525521BB2F5805F28BF4FF48B
:104950008052D3E903109208012A38BF012229446A
:104960002844FFF713FE0028B5D1227C002ADBD1B2
:10497000227A002AD8D0022A0AD1E0601A79CAB174
:10498000012A05D1D3E9042101328A421A611DD0DE
:10499000637C63B108F0E6FCC6E701228DF80020D5
:1049A0001A690292DA6803925B690493B3E7FFF72E
:1049B0003BFEB9E7D3E90512881AB0F5805F94BFD2
:1049C000121802F5805291429A61E1D100222272BE
:1049D00019688868A8B168460092C0E90122C0E958
:1049E00003229A6805921A7982B1012A07D102221C
:1049F0008DF80020DA68120302925B6904938B68D9
:104A0000984709490948FEF7F1FEC1E701228DF8F0
:104A100000201A690292DA6803925B690493EEE758
:104A2000203400203834002034340020103400209A
:104A3000831E012B00D9704730B58E4C237A87B086
:104A4000002B31D0022B2BD103286BD1E36801332B
:104A5000082B79D9884B00221B68E26022720D2551
:104A600019688A68C2B1002268460092C0E9022231
:104A7000026101959A6805921A79002A00F0B980BE
:104A8000012A07D102228DF80020DA68120302926F
:104A90005B6904938B68984778497948FEF7A6FECE
:104AA000637C1BB108F05EFC07B030BD237A002B9D
:104AB0005BD0714B1B68022222721A79002A5FD0E8
:104AC000012A0BD1D3E903021044FFF761FD00284E
:104AD00069D0112802D101232372E5E719688A6899
:104AE000C2B1002268460092C0E902220325026199
:104AF00001959A6805921A79002A70D0012A07D187
:104B000002228DF80020DA68120302925B69049396
:104B10008B68984700235949594823726360FEF710
:104B200065FEC1E7544B00221B68E2601A796AB146
:104B3000012AB5D1D3E9042101328A421A6111D088
:104B4000637C002BAED1B4E7E360F9E7D3E905124B
:104B5000881AB0F5805F94BF121802F58052914216
:104B60009A61EDD1002525727AE744494448FEF761
:104B70000FFE414A0346106000289CD1606093E715
:104B8000D3E90525521BB2F5805FD3E9031028BF96
:104B90004FF480529208012A38BF01222944284448
:104BA000FFF7F4FC93E7227C002A7FF47DAF227AA2
:104BB000002A3FF479AF022A0AD1E0601A7912B3D1
:104BC000012A05D1D3E9042101328A421A6126D093
:104BD000637C002B7FF466AFFFF726FD64E70122BC
:104BE0008DF800201A690292DA6803925B690493D7
:104BF0008EE701228DF800201A690292DA6803928A
:104C00005B69049346E7D3E90512881AB0F5805F23
:104C100094BF121802F5805291429A61D8D10022B5
:104C2000227219688868A8B168460092C0E901221A
:104C3000C0E903229A6805921A7982B1012A07D144
:104C400002228DF80020DA68120302925B69049355
:104C50008B68984709490A48FEF7C8FDB8E7012262
:104C60008DF800201A690292DA6803925B69049356
:104C7000EEE700BF20340020383400203434002018
:104C800010340020FEF7AABE2DE9F041058ACE1CA3
:104C9000043D2E440746B6FBF5F6FEF7BBFE78B39F
:104CA000F6B24FF48073013E0446C58007608380EE
:104CB00027D08046002509E06379AE4203F1010365
:104CC0006371C8F80000076080461AD03846FEF7C6
:104CD000A1FE01350028EFD16679721E14D023465B
:104CE000013082421B68FBD11F684EB1002523684A
:104CF0002146013538461C46FEF7B4FEAE42F6D1D9
:104D000000242046BDE8F0812768EFE70430012148
:104D1000FEF728BEF8B5012104460430FEF72EFE4A
:104D2000C0B200B1F8BD6679721E12D023460130C0
:104D300082421B68FBD11F68002EF3D00025236838
:104D40002146013538461C46FEF78CFEAE42F6D1B0
:104D5000F8BD2768F2E700BF2DE9F843C788467918
:104D600007FB06F6043E02EB030C0446664503F11E
:104D7000040015468846B0FBF7F238BFF51A07FB6A
:104D8000120012B1013A2468FCD13E1AAE4228BF8B
:104D90002E469DB14FF000090430AD1B2044324631
:104DA00008EB090108F05FFCAF42B14424683E46BD
:104DB0004FF0000028BF2E46002DEDD1BDE8F8834E
:104DC0002DE9F843C7884679154607FB06F6043EE9
:104DD00005EB030C1A1D664504468846B2FBF7F046
:104DE00038BFF51A07FB102110B101382468FCD137
:104DF0007E1AAE4228BF2E469DB14FF00009043105
:104E00002144AD1B324608EB090008F02CFCAF42F0
:104E1000B14424683E464FF0000128BF2E46002DC5
:104E2000EDD1BDE8F88300BF33DF704741DF704745
:104E3000064A074B10B5002414701C60BFF35F8F47
:104E40000449054800F09CF8204610BD4534002078
:104E500048340020E8E603003C34002000B583B06D
:104E600002A8002300F8013DFDF7E4F8F1EE103A46
:104E700023F09F03E1EE103ABFF35F8F0A4B40220D
:104E8000C3F884219DF80700FDF7FAF808F07AFAD4
:104E900028B920BF40BF20BF03B05DF804FBFFF777
:104EA000C5FF03B05DF804FB00E100E0704700BF00
:104EB000F8B5264D064601212846FEF719FDBFF339
:104EC0005F8FD0B9042E2FD0214B1A7892B9214C84
:104ED000012226701A70204E73687BB1374604E0B9
:104EE000384600F057F8736843B11B68207898473C
:104EF0000028F5D1BFF35F8F2860F8BDFCF72AF9D1
:104F0000FCF7E8F80028FBD12378023B012B0DD9F0
:104F100008F038FAB8B94FF080430122C3F80025F1
:104F2000BFF34F8F20BFFDE70A4CD4E7BFF34F8F8D
:104F30000A490B4BCA6802F4E0621343CB60BFF32B
:104F40004F8F00BFFDE7FFF76FFFE4E74834002015
:104F500045340020443400203C34002000ED00E0C3
:104F60000400FA05826800239360826813618268F6
:104F700053618268D36082685360826813607047AF
:104F800001600B6843604A68934204BF002343609A
:104F9000704700BF436843B1026891680B444360A7
:104FA0005268934204BF00234360704730B4184DE9
:104FB000A5F59472AB1ADB1003EBD3735B1002EB15
:104FC000C30152F83330984228BF0C4605D311E094
:104FD00052F8333098420CD221468B1ADB1003EB87
:104FE000D3735B108A4202EBC304F1D3094830BC8F
:104FF00070470D46984204D904F10802AA42D9D359
:10500000F4E76068034B002808BF1846EFE700BFCD
:105010003CE8030000E70300BFF34F8F0549064B50
:10502000CA6802F4E0621343CB60BFF34F8F00BF46
:10503000FDE700BF00ED00E00400FA0538B5B34B12
:105040001B78062B24D0B24B1B68062B00F08980FE
:10505000B04AD2F8883043F47003C2F88830BFF306
:105060004F8FBFF36F8F4FF01023D3F80C22D2076E
:1050700000F1B081D3F80022002AC0F28581D3F874
:105080000432002BC0F28081A34BA44A1A6038BDC1
:10509000A34B1B681B07D6D1A24B1B6803F0F00281
:1050A000302A00F09D8003F0E003402B00F0988050
:1050B0009C4B1B6803F0F003302B00F01881994BD8
:1050C0001B6803F0F002302A7AD003F0E003402B93
:1050D00076D0944B1B6803F0F003302B00F0448132
:1050E000904B1B6803F0F002302A56D003F0E00327
:1050F000402B52D08B4B1B6803F0F003302B00F099
:10510000E880884B1B6803F0F003302B00F0CA8066
:10511000844B1B6803F0F003502B71D0814B1B684C
:1051200003F0F002302A27D003F0E003402B23D015
:105130007C4B1B6803F0F002302A03D003F0E0033D
:10514000402B80D14FF08043D3F80024D10744BFD7
:105150006FF00102C3F800246D4B1B68062B7FF42F
:1051600077AF714B1B68062B7FF472AF6F4A1368E1
:1051700043F4806313606BE76D4B6E4A1B6803F06A
:105180004F031360614B1B78062B7FF45CAF644BBD
:105190001B6818077FF457AFCAE74FF0804300221F
:1051A000C3F80C21C3F81021C3F83825574B1B78DE
:1051B000062BE7D15A4B1B681A077FF444AF99E7D7
:1051C0005D4B524A1B6812785C49C3F34233062A8E
:1051D0000B6073D1524B1B6818077FF434AF78E72C
:1051E000574B4A4A1B6812785649C3F30423062AD0
:1051F0000B60DBD14A4B1B681D077FF424AF57E7D8
:105200004FF08053504AD3F80414C2F82015D3F855
:105210000814C2F82415D3F80C14C2F82815D3F8D2
:105220001014C2F82C15D3F81414C2F83015D3F8A2
:105230001814C2F83415D3F81C14C2F84015D3F86A
:105240002014C2F84415D3F82414C2F84815D3F832
:105250002814C2F84C15D3F82C14C2F85015D3F802
:105260003014C2F85415D3F83414C2F86015D3F8CA
:105270003814C2F86415D3F83C14C2F86815D3F892
:1052800040142248C2F86C15D3F844140378C2F8CD
:105290007015062B7FF4D7AE214B1B681C077FF4DB
:1052A000D2AE3BE7294A2A4C2A492B4B05201060F5
:1052B000012500203F22256008601A60134B1B78EF
:1052C000062B7FF4C0AE164B1B681D077FF4BBAEE8
:1052D0001EE70E4B214A1B780321062B11607FF439
:1052E000B2AE0F4B1B681B077FF4ADAE09E7074B4F
:1052F0001B4A1B781B491160062B7FF4A4AE084B98
:105300001B681C077FF49FAED9E600BFE00F00F0DA
:105310003001001000ED00E0542800200090D00380
:10532000E40F00F0E80F00F0340100103C170040DB
:1053300058020010E40E0040440200103C050040FA
:10534000240300104035014000C0004010560040CA
:10535000885600401856004014560040A0050040F2
:1053600074C007400DF0ADBA29492A4BCA681B78B2
:1053700022F08072062BCA607FF465AE264B1B6854
:1053800019077FF460AEABE6244A0123C2F8043566
:10539000D2F80034002BFBD04FF0102315211F4A08
:1053A000C3F80012D2F80034002BFBD04FF01023CA
:1053B00015211A4AC3F80412D2F80034002BFBD08E
:1053C00000231649C2F80435D1F80034002BFBD075
:1053D000FFF722FE114B0122C3F80425D3F8002465
:1053E000002AFBD04FF010210C4BD1F80C2222F0F8
:1053F0000102C1F80C22D3F80024002AFBD00021BE
:10540000064AC3F80415D2F80034002BFBD0DFE7BE
:10541000F0ED00E0E00F00F0E40F00F000E00140EC
:10542000054A4FF0A043105CD3F8043523FA00F08E
:10543000C04300F00100704728EC0300044B195CE6
:105440004FF0A04201238B40C2F80C35704700BFDB
:1054500028EC0300044B195C4FF0A04201238B4061
:10546000C2F80835704700BF28EC03004FF0A04396
:1054700010B44FF480604FF400744FF400614FF4A7
:105480008052C3F80845C3F80805C3F80815C3F8E7
:1054900008255DF8044B70474FF0A04310B44FF45B
:1054A00080604FF400744FF400614FF48052C3F8F1
:1054B0000C45C3F80C05C3F80C15C3F80C255DF8B2
:1054C000044B7047074B4FF0A041185CD1F80435EE
:1054D0000122824022EA03001340C1F80805C1F806
:1054E0000C35704728EC030010B570B101280BD1C2
:1054F0000D4C2369A0703BB1D3E900230120226148
:1055000098472369002BF7D110BD074CA3680122EF
:105510006270002BF8D0D3E900230020A2609847E6
:10552000A368002BF7D1EFE74C34002070B910B519
:10553000074CA368012262703BB1D3E9002300202D
:10554000A2609847A368002BF7D110BD704700BF39
:105550004C34002030B5012883B01CD015D303286B
:1055600011D100F0C9F802A800231F4C00F8013D3A
:10557000FCF760FDE368013BE360E56865B39DF817
:105580000700FCF77DFD03B030BD184B0122C3F8C6
:10559000802003B030BD02A80023134C00F8013D69
:1055A000FCF748FD237853B1E3689DF80700013309
:1055B0000122E360A270FCF763FD03B030BD0C482C
:1055C0006360A3602361E36000F088F807F0DAFE0F
:1055D00030B101232370E7E700F0A0F8A570CEE713
:1055E00000F08AF8F5E700BF4C34002000E100E04D
:1055F000E954030030B585B0047845688DF8004063
:10560000D0E90240064A074B039053F82130019538
:105610008DF8084052F821106846984705B030BD13
:10562000603400206434002030B585B004784568CB
:105630008DF80040D0E90240064A074B039053F82A
:10564000213001958DF8084052F82110684698479E
:1056500005B030BD6034002064340020F0B51A4B32
:1056600006781A4D0C6991F81DE045F8264007466A
:10567000174803F806E040F826200C4694460FCC65
:1056800089B06D460FC594E80F0085E80F000496B9
:10569000BEF1000F0BD0BCF1000F0E4A694607F1B6
:1056A000040008BF002201F091F809B0F0BDBCF180
:1056B000000F094A694607F10C0008BF002200F0FC
:1056C00061FE09B0F0BD00BF2C3B0020603400201B
:1056D00064340020F555030029560300054A137968
:1056E0002BB9012110605371184611717047852044
:1056F000704700BF68340020074B1A68D20704D4F3
:10570000C021012283F800131A604FF08043012268
:10571000C3F81825704700BF00E100E0044B0122E8
:105720001A604FF08042D2F81834DB03FBD4704784
:105730000C00004010B5154B1A6882B07AB10021F8
:10574000134A19601B68507900934FF08041012380
:10575000009CC1F8083310B91168537188470D4B8C
:105760001A6882B100221A601B6801934FF08042D0
:105770000221074B0198C2F808131B68012002B0F0
:10578000BDE81040184702B010BD00BF0001004046
:10579000683400200401004030B51D4C94F8585086
:1057A00083B095BB4FF0FF332946042204F1540027
:1057B000C4E90033C4E90233C4E90433C4E906335D
:1057C000C4E90833C4E90A33C4E90C33C4E90E332D
:1057D000C4E91033C4E91233236507F04FFF0D4AC3
:1057E0000D4B0E491D60C02082F80603402010605A
:1057F0001B68019301984FF000430122284684F86A
:105800005820C1F8043303B030BD082003B030BDC8
:105810007034002000E100E07C6100400060004046
:10582000034B93F85800003018BF0120704700BFA9
:105830007034002070B43F4B1A1892F93040013494
:1058400041D18C78E4B11A68013268D05A680132CB
:1058500067D09A68013266D0DA6801325DD01A6981
:10586000013262D05A69013261D09A6901322DD079
:10587000DA69013208BF072229D0042070BC7047C2
:10588000FE2382F830304A780123012A4FF0A042EB
:1058900003FA00F30CBFC2F80835C2F80C3500F566
:1058A000E0724FF0A043032143F82210C2082249BE
:1058B00000F007008C5C012303FA00F020438854B9
:1058C000002070BC7047082070BC7047062294000E
:1058D00004F1804404F5C0441D18002643F82260FA
:1058E00085F83020D4F810350A784D7823F49813D1
:1058F00023F4F85312042D05C4F8103505F480156F
:1059000002F4403203022A4303F4F853D4F810554A
:1059100013432B43C4F81035B5E70322D7E7002221
:10592000D5E70122D3E70222D1E70422CFE70522FF
:10593000CDE700BF70340020C434002001234FF0B5
:10594000A04203FA00F0C2F80805704701234FF0A7
:10595000A04203FA00F0C2F80C0570474FF0A041D6
:105960000122D1F8043502FA00F020EA03020340D4
:10597000C1F80825C1F80C35704700BFF0B56C4B75
:105980001C1894F93050002D68DA8E78C6F3400662
:105990009646002E5CD11D6A013500F0B5800924C1
:1059A0000C2553F8247001375BD004F1010C53F837
:1059B0002C70013700F0B380A71CAF4246D253F8D9
:1059C0002720013200F0AD8004F1030CAC453DD23C
:1059D00053F82C70013700F0A28004F1040CAC45A0
:1059E00034D253F82C70013700F0998004F1050C83
:1059F000AC452BD253F82C70013700F0908004F1A5
:105A0000060CAC4522D253F82C70013700F0878089
:105A100004F1070CAC4519D253F82C7001377ED035
:105A200004F1080CAC4511D253F82C70013776D034
:105A300004F1090CAC4509D253F82C7001376ED033
:105A40000A34AC4202D2DC6A013409D00420F0BD31
:105A50001D68013567D001240825A2E70820F0BDA4
:105A60000B241F1865B243F824E087F83050002E4D
:105A700051D08A78540714D4D6073BD44C784FF0D1
:105A8000A04600F5E072A40046F82240294EC40862
:105A900000F0070C375D012202FA0CF23A4332554E
:105AA0008A780C7812F0020209D1083D2B44104686
:105AB00093F8502042EA841483F85040F0BDAB00C4
:105AC00003F1804303F5C0430202D3F8101521F41B
:105AD000473121F44071C3F810152404D3F8101590
