:020000021000EC
:1020000000000120B5220100DD220100A5400100F1
:10201000E1220100E3220100E522010000000000AE
:10202000000000000000000000000000E7220100A6
:10203000E922010000000000EB220100ED22010076
:10204000EF220100EF22010089580100EF22010078
:10205000EF220100EF22010041530100EF220100B5
:10206000EF220100EF220100EF220100EF22010028
:10207000EF220100EF220100EF220100EF22010018
:10208000EF220100FD390100EF220100EF220100E3
:102090009D3A0100EF22010021750100EF220100AD
:1020A000EF220100EF220100EF220100EF220100E8
:1020B000EF220100EF2201000000000000000000FC
:1020C000EF220100EF220100EF220100EF220100C8
:1020D000EF220100EF220100EF22010000000000CA
:1020E00000000000000000000000000000000000F0
:1020F00000000000000000000000000000000000E0
:1021000000000000000000000000000000000000CF
:1021100000000000000000000000000000000000BF
:1021200000000000000000000000000000000000AF
:10213000000000000000000000000000000000009F
:10214000000000000000000000000000000000008F
:10215000000000000000000000000000000000007F
:10216000000000000000000000000000000000006F
:10217000000000000000000000000000000000005F
:10218000000000000000000000000000000000004F
:10219000000000000000000000000000000000003F
:1021A000000000000000000000000000000000002F
:1021B000000000000000000000000000000000001F
:1021C000000000000000000000000000000000000F
:1021D00000000000000000000000000000000000FF
:1021E00000000000000000000000000000000000EF
:1021F00000000000000000000000000000000000DF
:1022000010B5054C237833B9044B13B10448AFF330
:1022100000800123237010BDA80D002000000000E5
:102220007CA4010008B5034B1BB103490348AFF37D
:10223000008008BD00000000AC0D00207CA401005F
:10224000154B002B08BF134B9D46A3F5803A002188
:102250008B460F461348144A121A05F0C4FE0F4B62
:10226000002B00D098470E4B002B00D09847002041
:10227000002104000D000D48002802D00C48AFF3E7
:10228000008005F061FE2000290004F015FE05F035
:1022900047FE00BF00000800000001200000000011
:1022A00000000000A80D00207C18002000000000A5
:1022B000000000000649074A074B9B1A03DD043B58
:1022C000C858D050FBDC04F09FFEFFF7B9FF0000B8
:1022D00060A50100800B0020A80D0020FEE7FEE7AE
:1022E000FEE7FEE7FEE7FEE7FEE7FEE7FEE7FEE7C6
:1022F000F0B595B0002415460F4608461E4602F07C
:10230000E9FB384623460895082205A91A9D099637
:102310000D950A948DF82C400C9402F035FC9DF834
:1023200014308DF81140DDE9061003F00302012A94
:10233000CDE9020127D0022A04D0384602F0CEFBB4
:1023400015B0F0BDBDF81650C3F3C2038DF81030C0
:10235000AD090826082D2C4628BF082433462246FE
:102360000EA9384602F010FC2D1B214608AB02AA2C
:102370000EA8264400F0AAFF002DEBD1384602F04B
:10238000ADFB15B0F0BDBDF81460059DC6F3831616
:10239000C3F3C204B2000EA9384608238DF81040DA
:1023A000C5F3952502F0F0FB08AB324628460EA98E
:1023B000009302AB00F0E4FE384602F08FFB15B04C
:1023C000F0BD00BF014B01221A707047080E0020BB
:1023D000704700BF00B583B0044B0093044A40230C
:1023E000FFF786FF03B05DF804FB00BFF523010093
:1023F000C80D002038B50F480F4D03780F4CEB5C2B
:102400000025D2B2257053B90C3003F083FC58B9C3
:102410000B4B1B7813B12378002BFCD038BD043054
:1024200003F0B0FE0028F3D0064A532101F0FCF976
:10243000EEE700BF800B002078180020080E002077
:10244000C40D0020448B010070B51448144A037871
:10245000D35C88B0EBB90C3003F0F6FB114D0FCD17
:102460006C460FC495E80F0008AD062645F8206DB0
:1024700084E80F0029460022084802F0E5FC18B164
:10248000094A432101F0D0F9084B00221A7008B024
:1024900070BD043003F00EFEE0E700BF800B0020AB
:1024A00078180020188B0100448B0100C40D002017
:1024B00070B50E4D0FCD88B06C460FC495E80F0077
:1024C00008AD062645F8206D84E80F002946084A25
:1024D000084802F0B9FC18B1074A432101F0A4F9F9
:1024E000064B01221A7008B070BD00BF188B0100A6
:1024F000C5230100800B0020448B0100C40D002087
:1025000008B5FFF7D5FF0421034800F0EFFD034BAA
:1025100001225A7108BD00BF2CA50100940B0020B8
:10252000F0B5324C85B004F5836001F093FE04F2FF
:10253000144001F08FFED4E9013703EA0702D01CF2
:1025400004EB800114F8200010F0040044D003F1E3
:10255000020C0E7806F00306012E654635D0022ED9
:1025600002F1030621D004EB86010028F1D104EB2F
:1025700082020133D26801923B4004EB830302F0F4
:102580000302012ADE6829D0022A23D1BDF80630D1
:102590009B090333360C05EB9305154801F066FEE5
:1025A00000B16560304605B0F0BD4B880CEB93136D
:1025B00007EA0302D11C03F1020C14F8210065465E
:1025C00004EB810100F00400CFE70B88C3F3831311
:1025D0006344EDE70026E0E79D1CC8E7BDF8043042
:1025E000C3F38313360C1D44D7E700BFDC0E002075
:1025F000F01200200B4B0C4810B50022FF21C3F84D
:1026000018249960C3E90022C3F8142483F8202415
:1026100002F01CFA044610B9044802F087FB204679
:1026200010BD00BFDC0E002044A50100A48B0100FA
:1026300021B9124B03EBC00000687047104A0F49E4
:10264000521AD20815D030B40E4D2B88834212D0C6
:10265000002303E035F82340844205D001339A4239
:10266000F8D1002030BC704701EBC300006830BCDB
:102670007047104670470846F8E700BF84A4010081
:1026800014A50100A40D0020094B013903EBC00083
:1026900003290BD8DFE801F0020806040220704786
:1026A00040797047007970470420704700207047D8
:1026B00084A401002DE9F04383B002AB002203F8AB
:1026C000012DDFF8DC90074618468846D9F8084007
:1026D00001F0AAFCD9E90132D9F8006013440133B2
:1026E0009B1B012B58D809F21C450121284601F0FB
:1026F00099FDFFF715FF0146284601F093FDD9E942
:102700000132D9F80010134401335B1A012BECD9C4
:102710000A400332052302319DF8070049F82230B0
:10272000C9F8001001F0A6FC00211C4801F070FD62
:1027300080F31000731C234009EB83030004344032
:10274000033440EA1740D86019F8243067F3C50312
:1027500009F8243039F824306FF3891329F824302C
:1027600059F8242068F39F221346012161F30103E5
:102770006FF3820349F8242009F8243099F82034B3
:102780001BB906E000F00EF818B1D9E900329A4200
:10279000F8D103B0BDE8F0833146B9E7F812002064
:1027A000DC0E00202DE9F047934C002384B0C4F8E0
:1027B0001834BFF34F8FD4E9015605EA0602D31C43
:1027C00004EB830114F82330580719D527680B78D8
:1027D00003F00303012B43D0022B03D14B880235B6
:1027E00005EB931506EA0502D4F81804D31C04EB94
:1027F000830128B9AF4239D914F823305B07E6D4F6
:1028000004EB82026B1CD2680192334004EB830319
:1028100002F00302DB680293022A05F1020700F0CE
:102820008D80012A26D0D4F810543DB12B6828465B
:102830009B689847EB681D68002DF7D16F48704B77
:102840007049C01AC008000440F00200FFF732FFD0
:10285000D4E90030C01A18BF012004B0BDE8F087E9
:102860000B880235C3F383131D44BBE7676004B0D4
:10287000BDE8F087BDF804206348C2F38313062B3C
:1028800028BF062363F3891202339900ADF80420B0
:1028900002F0DEF880460028C5D002F01BF90023C4
:1028A000082201A9404602F03BF9BDF8043013F4B8
:1028B000707F00F09F806FF0010AAAEB050A0825DF
:1028C00006EA070103312B46042204EB810140464E
:1028D00002F026F9BDF8043007F101090AEB0902FC
:1028E000C3F3831393424F4605F10405E8D8D4F8A7
:1028F0001834002B68D1D4F8105465B1EB685A79BC
:1029000028464146002A5BD02B681B689847EB6835
:102910001D68002DF2D1404602F0E0F804A8002323
:1029200000F80D3D01F080FBD4F818340BB9C4F861
:1029300004909DF8030001F09DFB89E7BDF8063087
:1029400031484FEA93194D46502D28BF502565F365
:102950008F1305F10801ADF8063002F079F88046D2
:1029600000283FF460AF26EA070A0AF1010A02F0E4
:10297000B1F84FEA8A0A0023082201A9404602F072
:10298000CFF855452BD9EBB2BAF1000F20D006EAAB
:102990000701A3EB0A03033104EB8101DDB25246C8
:1029A0000823404602F0BCF82A460AF108031749FA
:1029B000404602F0B5F809F1030907EB990996E7DB
:1029C0001D68002D9AD1A6E7404602F087F83FE740
:1029D0002A4608230D49404602F0A2F8EBE706EA32
:1029E0000701033104EB81012A460823404602F027
:1029F00097F8E0E7B9467AE7DC0E0020ECA4010086
:102A000084A40100B08B010044A50100E80E002061
:102A10002DE9F04782B002AB002403F8014DDFF846
:102A2000ECA00746184691468846DAF8084001F0BF
:102A3000FBFADAE90132DAF80060134401339B1B38
:102A4000022B5ED80AF21C450121284601F0EAFB60
:102A5000FFF766FD0146284601F0E4FBDAE90132A2
:102A6000DAF80010134401335B1A022BECD90A4048
:102A70000332033145239DF807004AF82230CAF893
:102A8000001001F0F7FAB31C23400AEB8303002186
:102A90001D48C3F80C9001F0BBFB80F31000731CC1
:102AA00023400AEB830300043440033440EA174018
:102AB000D8601AF8243067F3C5030AF824303AF8CE
:102AC0002430012161F389132AF824305AF8242094
:102AD00068F39F22134661F301036FF382034AF800
:102AE00024200AF824309AF820341BB906E0FFF7B6
:102AF00059FE18B1DAE900329A42F8D102B0BDE8C5
:102B0000F0873146B3E700BFF8120020DC0E00204A
:102B10002DE9F04F83B002AD002405F8014D3B4C88
:102B20008046284693469A468946A56801F07CFA75
:102B3000D4E90132276813440133DB1B032B63D82C
:102B400004F21C460121304601F06CFBFFF7E8FC63
:102B50000146304601F066FBD4E901322168134496
:102B600001335B1A032BEDD90A400332852344F865
:102B7000223004319DF80700216001F07BFABA1C75
:102B8000FB1C2A402B4004EB820204EB8303002150
:102B90001F48C2F80CB0C3F80CA001F039FB80F359
:102BA00010007B1C2B4004EB830300043D400335E5
:102BB00040EA1840D86014F8253068F3C50304F8DB
:102BC000253034F82530022262F3891324F82530A9
:102BD00054F8252069F39F221346012161F3010374
:102BE0006FF3820344F8252004F8253094F820344C
:102BF0001BB906E0FFF7D6FD18B1D4E900329A42BE
:102C0000F8D103B0BDE8F08F3946ADE7DC0E002007
:102C1000F81200202DE9F04F83B002AE002406F830
:102C2000014D3E4C8046304693469A46A5688946FB
:102C300001F0FAF9D4E90132276813440133DB1BB0
:102C4000042B69D804F21C460121304601F0EAFA4F
:102C5000FFF766FC0146304601F0E4FAD4E90132A0
:102C60002168134401335B1A042BEDD90A40033267
:102C7000C52344F8223005319DF80700216001F09A
:102C8000F9F9B81CFA1C28402A403B1D2B4004EBE4
:102C9000800004EB820204EB8303C0F80CB0002137
:102CA000C2F80CA01E480C9ADA6001F0B1FA80F369
:102CB00010007B1C2B4004EB830300043D400335D4
:102CC00040EA1840D86014F8253068F3C50304F8CA
:102CD000253034F82530032262F3891324F8253097
:102CE00054F8252069F39F221346012161F3010363
:102CF0006FF3820344F8252004F8253094F820343B
:102D00001BB906E0FFF74EFD18B1D4E900329A4234
:102D1000F8D103B0BDE8F08F3946A7E7DC0E0020FC
:102D2000F81200202DE9F04F87B006AE002406F817
:102D3000114D454C109F0497CDE9022380469946DA
:102D40003046119B05939246A5688B4601F06CF9BD
:102D5000D4E90132276813440133DB1B052B70D8FB
:102D600004F21C460121304601F05CFAFFF7D8FB63
:102D70000146304601F056FAD4E901322168134485
:102D800001335B1A052BEDD90A40033240F20513DB
:102D900044F8223006319DF807002160FE1C01F046
:102DA00069F9B91C29402E403A1D2A4004EB8101E3
:102DB00004EB86067B1D2B4004EB8202C1F80CA0BD
:102DC00004EB8303C6F80C90109ED6600021119A84
:102DD0001E48DA6001F01CFA80F310007B1C2B40C7
:102DE00004EB830300043D40033540EA1840D860FB
:102DF00014F8253068F3C50304F8253034F825307D
:102E0000042262F3891324F8253054F825206BF34B
:102E10009F221346012161F301036FF3820344F8FB
:102E2000252004F8253094F820341BB906E0FFF77C
:102E3000B9FC18B1D4E900329A42F8D107B0BDE824
:102E4000F08F3946A0E700BFDC0E0020F81200200A
:102E50002DE9F04F87B006AE002406F8154DCDE9F8
:102E60000123484C109F03979946119B0493804679
:102E7000129B059330469246A5688B4601F0D4F824
:102E8000D4E90132276813440133DB1B062B77D8C2
:102E900004F21C460121304601F0C4F9FFF740FB63
:102EA0000146304601F0BEF9D4E9013221681344ED
:102EB00001335B1A062BEDD90A40033240F2451369
:102EC00044F8223007319DF8030021603E1D01F0D7
:102ED000D1F8B91CF81C294028402E407A1DBB1D92
:102EE0002B402A4004EB810104EB800004EB8606B2
:102EF00004EB820204EB830C109BC1F80CA0C0F819
:102F00000C90F360119BD3600021129B1E48CCF8FB
:102F10000C3001F07DF980F310007B1C2B4004EB9A
:102F2000830300043D40033540EA1840D86014F89C
:102F3000253068F3C50304F8253034F82530052220
:102F400062F3891324F8253054F825206BF39F226F
:102F50001346012161F301036FF3820344F8252036
:102F600004F8253094F820341BB906E0FFF71AFC6A
:102F700018B1D4E900329A42F8D107B0BDE8F08F19
:102F8000394699E7DC0E0020F81200202DE9F04FB9
:102F900085B004AC002304F8013DDFF834B10191A1
:102FA0008246204602F103089146DBF8084001F012
:102FB0003BF8DBE90121DBF800700A444FEA98088E
:102FC0000132D21B08F1020696427AD90BF21C4557
:102FD0000121284601F026F9FFF7A2FA014628460A
:102FE00001F020F9DBE90121DBF800000A4401329D
:102FF000121A9642ECD8014003310622064468F3C7
:103000009F529DF80F004BF82120CBF8006001F093
:1030100031F8DBF80850B81C204001352D1AAD00FE
:103020000330A9450BEB80003DD801994A4604F0D6
:10303000CFFF0021244801F0EBF880F310007A1C48
:1030400022404FEA1A410BEB82023C40033441EA32
:103050000040D0601BF824206AF3C5020BF824203E
:103060003BF824206FF38F122BF824200BEB840203
:103070000220518869F38F1151801BF8242060F3DE
:1030800001026FF382020BF824209BF820241AB966
:1030900006E0FFF787FB18B1DBE900219142F8D188
:1030A00005B0BDE8F08F019E2A46314604F090FF3E
:1030B00033462B441946A9EB0502044804F088FF67
:1030C000B7E7384697E700BFF8120020E80E002067
:1030D000DC0E0020044BD3E900239A4201D0FFF715
:1030E00061BB0020704700BFDC0E002030B4184DDB
:1030F000D5F8104400215CB1E3681A798A4204D102
:1031000016E0DB681A798A4212D01B68002BF8D1CE
:10311000C3681971D5F8103493B1DA68C3681268BE
:103120001A60D5F81034DB68186030BC0846704768
:1031300001310A29DFD14FF0FF31084630BC70471A
:10314000C5F81004C2681360084630BC704700BF61
:10315000DC0E002038B5094BD3F81044012583F864
:1031600020544CB1E3685D71236820465B68984742
:10317000E3681C68002CF5D138BD00BFDC0E0020D0
:103180002DE9F04784B01D460C9C002394F80C8078
:103190002373EB8881460E461746002B40D1297ACF
:1031A00005290ED06B7AA88873BB404B53F821A039
:1031B0000021FFF73DFA524603463D49204601F003
:1031C000CDF8062F09D8DFE807F0046A4249525DBE
:1031D00033004946204601F0C1F82B7A052B05D073
:1031E0006B7A5BB93349204601F0B8F8204601F00C
:1031F000A9F884F80C8004B0BDE8F0872E4A2F4966
:10320000204601F0ABF8EDE7FFF73EFA2C4B2B49D7
:1032100053F82020204601F0A1F8297AA888C4E7B5
:10322000254A00922749284A204601F097F8B6E738
:10323000D6E90410D6E900230390D6E902070291EB
:10324000CDE900074946204601F088F8C5E7494620
:10325000D6E90023204601F081F8BEE7B168D6E93F
:10326000002320460091494601F078F8B5E7D6E9F9
:103270000201D6E90023019100904946204601F061
:103280006DF8AAE7D6E90371B068D6E90023029188
:10329000CDE900074946204601F060F89DE7326815
:1032A0004946204601F05AF897E700BF3C8C0100E0
:1032B0002C8C0100388C0100208C0100288C01002E
:1032C000C88B0100088C0100008C0100082900D97E
:1032D00070472DE9F04F1D46904600232A7B2B7343
:1032E00085B0B8F80630039207460E46002B7BD116
:1032F00098F80810052911D098F80930B8F804009A
:10330000002B63D13C4B53F821400021FFF790F98B
:10331000224603463949284601F020F8DFF8FCB080
:10332000DFF8FC90002405E03A5D013401F016F866
:10333000082C09D0A64249462846F5D859460134FA
:1033400001F00CF8082CF5D12D49DFF8D8B0DFF8E2
:10335000D890284601F002F800240CE017F804A0E9
:10336000BAF17E0F23D92E2249462846013400F0B7
:10337000F5FF082C08D0A642F0D85946284601345B
:1033800000F0ECFF082CF6D198F80830052B02D09D
:1033900098F80930A3B91B49284600F0DFFF2846FA
:1033A00000F0D0FF039B2B7305B0BDE8F08F04F055
:1033B000EFFD50445246437813F0970FD3D0D3E734
:1033C000114A1249284600F0C9FFE4E7FFF75CF90B
:1033D0000F4B0E4953F82020284600F0BFFF98F805
:1033E0000810B8F804008DE7074A009209490A4A14
:1033F000284600F0B3FF7BE73C8C01002C8C0100D9
:10340000F88B0100388C0100208C0100288C010011
:10341000C88B0100088C0100008C0100F48B0100B6
:10342000EC8B0100F89A0100FC8B0100054A4FF07B
:10343000A043105CD3F8043523FA00F0C04300F039
:1034400001007047A08C0100044B195C4FF0A042B2
:1034500001238B40C2F80C35704700BFA08C0100DF
:10346000044B195C4FF0A04201238B40C2F8083591
:10347000704700BFA08C01004FF0A04310B44FF480
:1034800080604FF400744FF400614FF48052C3F831
:103490000845C3F80805C3F80815C3F808255DF802
:1034A000044B70474FF0A04310B44FF480604FF4CA
:1034B00000744FF400614FF48052C3F80C45C3F818
:1034C0000C05C3F80C15C3F80C255DF8044B7047C8
:1034D000074B4FF0A041185CD1F80435012282401F
:1034E00022EA03001340C1F80805C1F80C35704703
:1034F000A08C0100434B1978002900F081802DE950
:10350000F04F002487B001258E4603E00134E4B279
:10351000744560D23C4B27B21E6816F837C0ACF138
:10352000200205FA02F9394ACCF12003D2E9000160
:1035300025FA03F349EA030905FA0CF800EA080240
:1035400001EA0903134306EBC70BDFD021EA0903A5
:103550002E4920EA08026046C1E9002301F0E6FE98
:1035600016F837C0ACF1200205FA02F20192019977
:10357000CCF12003C6B225FA03F3ACF120021943C3
:1035800006FA02F30393224B0191D3E90023CDE91C
:10359000042305FA0CF30093CCF12001039B26FAD7
:1035A00001F10B43039306FA0CF30293DDE9046780
:1035B000DDE9002316401F4032463B46DDE9026745
:1035C000BB4208BFB24209D00E4B013493F800E071
:1035D000E4B274459ED307B0BDE8F08F9BF80110AC
:1035E000DBF80430A1F10101B1FA81F14909091AAE
:1035F000B1FA81F14909002BE6D060469847E3E72C
:10360000704700BF98130020D0130020C81300207B
:10361000C01300202DE9F84F0646244800F0C4FCF2
:10362000D8B9234F0123A6F1200103FA01FBC6F10B
:103630002002D7E9000123FA02F24BEA020B03FA57
:1036400006FA00EA0A0201EA0B03134307D020EA54
:103650000A0421EA0B05C7E90045BDE8F88F3046AA
:1036600001F064FE134ED6E90089C8B148EA0A03A6
:1036700049EA0B049846A146D7E900234BEA030523
:103680000D4B0A4819684AEA02044B464246C6E90D
:103690000023C7E900450022BDE8F84F00F02EBC2A
:1036A00028EA0A0829EA0B09E6E700BFA013002070
:1036B000C8130020C01300209C130020042A36D910
:1036C0002DE9F04182B00E460546144601F040FC5B
:1036D000002836D01D491E4A1E4B0D601E481F494A
:1036E0001C60167000230022741EC0E90023C1E98B
:1036F0000023E4B2EEB105EBC404194F083D4FF0CE
:103700000008032601E0AC4213D0A37820788DF89E
:1037100006803A4601A98DF804608DF8053001F065
:10372000C5FC083C0028EED002B0BDE8F0810720BF
:1037300070470C4A0C48002100F0CEFB02B0BDE8F7
:10374000F08101F0C1FB0028C4D0EDE7D0130020C8
:10375000981300209C130020C0130020C8130020E1
:1037600015360100F5340100A48C010070B5084D38
:103770002B785BB1074E00243368012113F8340025
:1037800001F072FD2B780134A342F5D8002070BD02
:1037900098130020D013002010B5094B1B6803EBD1
:1037A000C00413F8300001F0C1FD6378A3F10103F8
:1037B000B3FA83F35B09181AB0FA80F0400910BD20
:1037C000D013002030B482B001248DF80740154B8F
:1037D0009DF80750186044F20104A04259609A60B5
:1037E00014D044F20201884208D072B69DF8073026
:1037F000002BFBD162B602B030BC7047DA60DA68E9
:1038000012889A61DA685268DA61EEE71A611A6919
:1038100092685A611A6912689A611A695268DA6183
:10382000E3E700BFD413002000B583B002900091FD
:10383000019244F2010071466A4600F003F803B0B9
:1038400000BD00BF2DE9F041054684B00F46164685
:1038500072B6FFF77FFCFFF73DFC0028FBD1274B3A
:10386000274CE41AE40841F2010324049D4244F089
:1038700001043DD02FD944F201039D4216D044F2F9
:1038800002039D422ED12046338872681D49FFF7FE
:103890003FF91D4B1B68DB0700D500BE3246394699
:1038A000284604B0BDE8F041FFF78CBFD6F8088089
:1038B000404601F05FFA33681449CDE90137736877
:1038C0000093424603462046FFF7C2FA20461049BD
:1038D000FEF7F0FEDDE7012D04D120460D49FEF78D
:1038E000E9FED6E720463A460B49FFF791F8D0E7C4
:1038F00020460A49FEF7DEFECBE700BF84A40100A4
:10390000ECA40100EC8C0100F0ED00E0088D01005A
:10391000308D0100A88C0100448D0100C88C01008D
:10392000F0B412F0030412D14B1CDB000A4D0B4E15
:103930000B4F34709BB213442B600A4E0A4D0B4B55
:1039400028803A60347019802046F0BC7047072404
:103950002046F0BC704700BFF8130020F41300208D
:10396000FC13002004140020001400200214002086
:103970002DE9F84F1B4C1C4D22782B789A4226D00B
:10398000DFF86CA0DFF86C90184FDFF86CB04FF0E8
:1039900000082378DAF800203888D9F80060DBB214
:1039A0000FFA83FE02EBCE0103FB0060898852F818
:1039B0003E3098472378BBF80010DBB25A1C99427E
:1039C000D2B206D9227023782A789A42E1D1BDE892
:1039D000F88F84F8008022782B789A42D9D1BDE8FC
:1039E000F88F00BF04140020F413002000140020FE
:1039F000FC130020F813002002140020F8B5204A20
:103A0000204B0024C2F84041C2F84441C2F848416A
:103A1000C2F84C41C2F80041C2F804411B6833B3FC
:103A20001949D2F804550A68AD1A1A6825F07F457D
:103A3000AA4227460DD8197CDE69AD1A144419B183
:103A40001F74D3E9052090471EB133461A68AA4275
:103A5000F1D90E490E4A0B7812789A4208D00D49D6
:103A60000D4A41F823404FF48013C2F80031F8BDED
:103A7000531CDBB2022B08BF00230B70EFE700BF23
:103A800000100140281500202415002021150020D9
:103A9000201500201815002000E100E02DE9F04F6E
:103AA0008C4A8D4913780978DFF85082994285B0A5
:103AB000D8F800A000F07B810133DBB2022B08BFF5
:103AC000002386481370864A076852F823107B1833
:103AD00023F07F4300240360534626462046A44635
:103AE000ABB11A688A4200F26581DC68C3F800C095
:103AF000891A1044DA6934B13D1825F07F45C3E9CD
:103B00000154DE611E4613460124002BE9D1002C2E
:103B100040F07C8101230093724B734FDFF8E091FA
:103B200043F00103019355464FF0000B46B3D6E92D
:103B300001C13446F669694B6C481A68ACEB020364
:103B400023F07F43834248D80B44236000220121A5
:103B5000C4E90122E2612174002D5DD02A689A42F5
:103B60004DD2284603E00A689A424FD20846C169FE
:103B70009B1A0029F7D12360E161C461002ED6D1E0
:103B800078783978884264D00B4603EB43034C1CA9
:103B9000BA7807EBC303E1B28A421A79397004BFDD
:103BA00000213970022A9C6844D0032A38D0012AA7
:103BB000E8D1227C002AE5D1D3F80CC0C4F804C0B7
:103BC0001969A1605869E06099F800009B69A361D8
:103BD0000028B0D062609446ADE7A2EB0C0222F060
:103BE0007F428A4202D28B1A2360AFE70023012270
:103BF000C4E90033A360E36122746DB12A68C8F898
:103C00000040D31A2B60E56125468FE7D21A0A607F
:103C10002360E161C461B1E7C8F80040254685E74B
:103C2000002DAFD000232B74ED69002DFBD1C8F817
:103C30000050A5E74DB1AC422B4603D1E4E09442DD
:103C40002FD01346DA69002AF9D100232374884261
:103C50009AD1BBF1000F01D1554553D0002D56D15B
:103C6000234E244A1F4C4FF480334FF40031012778
:103C7000C2F880103C43C6F848334FF43C60C6F8A5
:103C800008337760A047154BB7604FF43C601D6068
:103C9000A047194B1D70002389F8003005B0BDE81E
:103CA000F08FA34200F09180E0692168D86100287C
:103CB00000F086802A4603680B440360AA424FF056
:103CC00000033978787823741CBF15464FF0010B38
:103CD000BDE700BF2015002021150020241500207D
:103CE00018150020608D010008140020FEFF7F00E1
:103CF0000010014000E100E015150020281500200B
:103D000014150020009B002BC5D0002DA8D0434BDC
:103D1000434A1C68D2F80465424FD5F800A03978B0
:103D2000331B23F07F43DD1CB9B93F493F4B4FF4B0
:103D30008030C2F844034FF00108C2F804034FF486
:103D40000030C1F8800143F001030860C2F8008030
:103D50004FF43C60984787F80080AA452CBF04EBDD
:103D60000A0363192E4923F07F43C1F84035D1F887
:103D70000425921B9B1B22F07F4223F07F430332DA
:103D80009A4288D9294BD1F80425C1F8402543F03F
:103D900001034FF43C609847234B4FF40032C3F8C3
:103DA0000021002389F8003005B0BDE8F08F00261F
:103DB0000096B1E674BB521A1A6001230093ABE679
:103DC000002339787878237441E71946EA69C8F8FE
:103DD000002092B9CDE90231114BDFF840C001203B
:103DE0009860019B89F80000CCF800204FF43C60FB
:103DF0009847DDE90231D8F80020C8690968D86120
:103E000000287FF458AF59E72946DFE7C8F80030AB
:103E10009A467FE6C8F800309A46CCE72415002081
:103E2000001001401515002000E100E0608D010048
:103E30002DE9F8431F4D204E204FDFF898804FF4B6
:103E400080334FF400324FF001090024C6F880207F
:103E500047EA0907C5F848334FF43C60C5F8083312
:103E6000C5F80490B847C5F808904FF43C60C8F80E
:103E70000040B847124A134B13491C601470134B8F
:103E8000134A0C700B2114701C8099704FF480122F
:103E9000C023C6F8802186F814333260C5F808457F
:103EA00086F81133D5F80435C8F800302046BDE84F
:103EB000F88300BF0010014000E100E0608D0100C8
:103EC00015150020281500202015002008140020BA
:103ED0002115002024150020074B9B784BB132B1EF
:103EE00028B10368187C20B959745A6170470720BB
:103EF00070470820704700BF081400202DE9F047E4
:103F0000264CA37882B0002B3CD000283AD004295C
:103F10003CD94369002B35D0814602A899F811306D
:103F20000026012B00F8016D0CBF8846B0461746ED
:103F30008A4600F079F86378A17822789DF8070026
:103F40005D1CEDB2A94208BF3546AA4222D003EB60
:103F5000430304EBC3030121114AC3F8089019710C
:103F6000D2F804256570C3E9032AC3E9058700F088
:103F700081F80C4B4FF480123046C3F8002102B098
:103F8000BDE8F087082002B0BDE8F087072002B046
:103F9000BDE8F08700F06EF80420F0E70814002078
:103FA0000010014000E100E0F0B51A4CA37883B0A6
:103FB00043B338B343692BB3064602A8002500F883
:103FC000015D357400F030F86278A77821789DF8AB
:103FD0000700531CDBB29F4208BF2B46994214D006
:103FE00002EB420204EBC20202219660117163707F
:103FF00000F040F8084B4FF480122846C3F8002127
:1040000003B0F0BD082003B0F0BD00F033F8042089
:10401000F9E700BF0814002000E100E0014BD3F8ED
:10402000040570470010014070B4EFF3108472B6BD
:104030000D4B9A68AAB90D490D4E01259D60D1F826
:10404000805035401D60C1F88060D1F884505D60BB
:104050004FF0FF33C1F88430027004B962B670BC0F
:10406000704701230370F8E76C18002000E100E0BE
:10407000FC06FFBD094B9A687AB170B910B4EFF332
:10408000108172B6064A1C6814605C6854609860BF
:1040900001B962B65DF8044B704770476C18002098
:1040A00000E100E01EF0040F1CBFEFF309800AE0FE
:1040B000EFF308800549064A884201D8904202D8A9
:1040C0008D464FF00000034B184700000000012010
:1040D00000E00020FD400100BFF34F8F0549064B73
:1040E000CA6802F4E0621343CB60BFF34F8F00BF96
:1040F000FDE700BF00ED00E00400FA052DE9F04700
:1041000082B08146FFF726F8FEF7E4FF0028FBD1D6
:10411000324F334A334BBF1AFF083F0447F00107C1
:104120009D6AB9F1000F53D0D9F818202E493846AE
:10413000FEF76EFCD9E90210D9E90023CDE90010A1
:104140002A493846FEF7EEFDD9F81C10D9E90423B8
:10415000384600912649FEF75DFD224BDB6A980741
:1041600023D4DFF8A4A0DFF8A4800024012606FAF7
:1041700004F32B4207D05AF8243041461A463846F9
:104180000BB1FEF745FC01341A2CF0D1290618D4E6
:104190002A040FD4174B1B68DB0700D500BE484626
:1041A000FFF79AFF02B0BDE8F08713493846FEF7E3
:1041B00081FAD6E70B4B11499A6B3846FEF728FC7B
:1041C000E8E7084B0E495A6B3846FEF721FCDFE75B
:1041D0000C493846FEF76EFABFE700BFF4A40100B1
:1041E00084A4010000ED00E0688D0100808D0100D5
:1041F000B88D0100F0ED00E0148E0100848E010006
:10420000648E0100E08D0100A08E0100588E010037
:1042100050E8002F0B4640E8003C9CF0000FF7D11F
:104220001046704750E8003F03EB010240E8002CC5
:104230009CF0000FF6D11046704700BF50E8003FD9
:10424000A3EB010240E8002C9CF0000FF6D11046D1
:10425000704700BF012350E8002F42EA030C40E8FA
:1042600000C191F0000FF6D160467047002350E87E
:1042700000CF0CEA030240E8002191F0000FF6D1D4
:1042800060467047B8B130B4D0E90112521A0468E0
:10429000D2B2531E2160DBB242B101680A685C1ED3
:1042A000551C0D601370E3B2FF2BF6D1036800209C
:1042B000187130BC70470E20704700BFF0B583B056
:1042C00002AB002503F8015D04461846FFF7ACFE7B
:1042D000D4E900311A688A4210D9511E1960216848
:1042E000A3680F6812F8015C0A79268AE068DB1B74
:1042F000DBB29A4206FB050538BF0B719DF807003B
:10430000FFF7B8FE284603B0F0BD00BF30B583B05C
:1043100002AB002203F8012D054618460C46FFF7B4
:1043200083FE2A681368591C1160E9682A8A641A96
:10433000B4FBF2F41C709DF80700FFF79BFE03B07E
:1043400030BD00BF826842B110B5044643690168C0
:10435000006998470023A36010BD70470EB400B5F4
:1043600082B0039929B102AA04AB42F8043D00F0DF
:104370008BF802B05DF804EB03B070472DE9F84FFD
:1043800088469045174605461E46DDE90AB175D3B5
:1043900043464FF00109B3FBF7F39F4209F10109CE
:1043A000F9D9B14538BFB14611F0010AAA6802D166
:1043B000BBF1000F43D1012402E0013E07FB04F4EE
:1043C000012EFAD8B8FBF4F18F42F7D92D4E05E053
:1043D000B4FBF7F4A4B1B8FBF4F1AA68705C531C09
:1043E000AB602B689854D5E901329A4204FB1188DE
:1043F000EED32846FFF7A6FFB4FBF7F4002CEAD172
:10440000BAF1000F15D0BBF1000F12D0CB4510D977
:104410002024AB682A68591CA960D454D5E901321C
:104420009A420BF1FF3B06D2BBF1000F01D0CB4506
:10443000EFD1BDE8F88F2846FFF784FFF4E78B073C
:1044400017D42024CB45B6D92B68511CA9609C54A5
:10445000D5E901329A420BF1FF3B05D2BBF1000FC7
:10446000A9D0CB45F0D1A6E72846FFF76BFFAA6895
:10447000F4E7002E0CBF30242024E3E74FF00109BD
:104480008FE700BFE8930100002900F0F4812DE9D7
:10449000F04F054685B092460C460B78DFF8A8B57C
:1044A00001E0237893B1013483B1252B15D0AA689C
:1044B0002968501CA8608B54D5E901329A42F0D388
:1044C0002846FFF73FFF2378002BECD12B7B002BF6
:1044D00040F0148105B0BDE8F08F2146002711F8A7
:1044E000012B2D2A00F0E180302A00F0E2802B2AF7
:1044F00000F0D2802A2A00F0E080A2F13006F3B268
:10450000092B03D9B8E1A3F130060146084606EBB2
:10451000860310F8012BA2F13004092C02EB4303AF
:10452000F1D92E2A00F0D5800023013101E011F8E5
:10453000012B02F0FB0068280C46F8D0253A532ADC
:10454000AFD801A151F822F009470100A3440100AE
:10455000A3440100A3440100A3440100A3440100BB
:10456000A3440100A3440100A3440100A3440100AB
:10457000A3440100A3440100A3440100A34401009B
:10458000A3440100A3440100A3440100A34401008B
:10459000A3440100A3440100A3440100A34401007B
:1045A000A3440100A3440100A3440100A34401006B
:1045B000A3440100A3440100A3440100A34401005B
:1045C000A3440100A3440100A3440100A34401004B
:1045D000A3440100A3440100A3440100A34401003B
:1045E000A3440100A3440100A3440100A34401002B
:1045F000A3440100A3440100A3440100A34401001B
:10460000A3440100A3440100A3440100A34401000A
:10461000A344010023470100A3440100A344010077
:10462000A3440100A3440100A3440100A3440100EA
:10463000A3440100A3440100A3440100A3440100DA
:104640003D4701005F470100A3440100A34401006E
:10465000A3440100A34401005F470100A3440100FB
:10466000A3440100A3440100A3440100A3440100AA
:10467000A3440100AF470100A3440100A34401008B
:1046800023480100A34401005D480100A344010048
:10469000A34401002347010047F004070C462146CC
:1046A00011F8012B2D2A7FF41FAF47F001070C46AC
:1046B000F5E747F002070C46F1E7DAF800301A1D7B
:1046C000CAF8002062781E682E2A04F102007FF4E6
:1046D0002BAF4A78A2F13003092B00F2508100235E
:1046E00003EB830302EB430310F8012FA2F1300127
:1046F0000929A3F13003F3D9014616E7284605B08E
:10470000BDE8F04FFFF71EBEAB682A68591CA960D0
:104710004FF02501D154D5E901329A42FFF4C1AEE0
:10472000CEE6DAF80020111DCAF8001011682846FC
:10473000CDE900671022FFF721FEB2E6DAF800208B
:10474000131DCAF80030AB6829681278581CA8609D
:10475000CA54D5E901329A42FFF4A3AEB0E6DAF8C2
:104760000020111DCAF80010D2F8008088EAE87213
:10477000A2EBE872092A4FF0010107DDB148A0FB66
:104780000202D208092A01F10101F7DC994238BF7F
:104790001946894607F00202002E71D12AB1002B7A
:1047A00000F04B81FA0700F18D8000268AE0DAF8EC
:1047B0000020131DCAF80030AB6829681768581C20
:1047C0003022A860CA54D5E90123934280F02C819D
:1047D0002A68581C7821A860D154D5E90123934256
:1047E00080F01D810F2F03D93A4612090F2AFCD8F9
:1047F0004FF0805603E036093FF453AEAB682968AA
:10480000B7FBF6F2581CA8601BF80200C854D5E9A3
:104810000131994206FB1277EDD32846FFF792FD4E
:10482000E9E7DAF800301A1DCAF80020D3F8008052
:10483000FB077ED54746A7EB080917F8013B002B7D
:104840005DD0AA682968501CA8608B54D5E9013254
:104850009A42F0D32846FFF775FDECE7DAF800201E
:10486000111DCAF8001011682846CDE900670A2218
:10487000FFF784FD15E6704708460026214650E6FE
:10488000B8F1000F01DB780700D5013E02B1CBB1D2
:10489000F90717D4002E88D0B14513D220220393F4
:1048A000A9682B68481CA8605A54D5E9013199427F
:1048B00006F1FF365DD2002E00F0C180B145EFD188
:1048C000039B4E46B8F1000FC0F296807A070AD5D6
:1048D000A9684A1CAA602A682B205054D5E90121F6
:1048E000914280F0968007F00302022A5FD0CDE962
:1048F000006741460A222846FFF740FDD1E54E45B4
:104900007FF6CFAD202705E04E453FF4CAAD002E1F
:104910003FF4C7ADAB682A68591CA960D754D5E9E4
:1049200001329A4206F1FF36EED32846FFF70AFD20
:10493000EAE7B8F1000F24D0404603F05CFB0746DD
:10494000BE4220D9FEB14FF0200902E0BE421AD08B
:10495000CEB1AB682A68591CA96002F80390D5E96A
:1049600001329A4206F1FF36F0D32846FFF7EAFCFF
:10497000ECE728460292FFF7E5FC029A9BE7014626
:10498000D2E54746DCE708F1FF3818F8013F002B75
:104990003FF487ADAA682968501CA8608B54D5E9FC
:1049A00001329A42F1D32846FFF7CCFCEDE7002B09
:1049B0009DD1002E3FD0B14599D2029323464C465B
:1049C000B1461E46AA682B68501C4FF03001A86003
:1049D0009954D5E901329A4209F1FF3908D2B9F167
:1049E000000F26D04C45EDD13446029B4E467EE763
:1049F0002846FFF7A7FCF2E7A9684A1CAA602A68C4
:104A00002D205054D5E901219142C8F10008FFF44E
:104A10006AAF28460293FFF795FC029B63E728469E
:104A2000FFF790FCAB68DDE62846FFF78BFCAB6830
:104A3000CEE6029B3446002659E71E4642E7039B1A
:104A4000B3E600BFCDCCCCCCE8930100FFF71ABC95
:104A50002DE9F041058ACE1C043D2E440746B6FBE5
:104A6000F5F6FFF72BFC78B3F6B24FF48073013EF6
:104A70000446C5800760838027D08046002509E072
:104A80006379AE4203F101036371C8F80000076067
:104A900080461AD03846FFF711FC01350028EFD1C7
:104AA0006679721E14D02346013082421B68FBD106
:104AB0001F684EB1002523682146013538461C4643
:104AC000FFF724FCAE42F6D100242046BDE8F08179
:104AD0002768EFE704300121FFF7A4BBF8B50121F7
:104AE00004460430FFF7AAFBC0B200B1F8BD6679F6
:104AF000721E12D02346013082421B68FBD11F6810
:104B0000002EF3D0002523682146013538461C4687
:104B1000FFF7FCFBAE42F6D1F8BD2768F2E700BF15
:104B20002DE9F843C788467907FB06F6043E02EBF9
:104B3000030C0446664503F1040015468846B0FBA5
:104B4000F7F238BFF51A07FB120012B1013A2468D8
:104B5000FCD13E1AAE4228BF2E469DB14FF000094F
:104B60000430AD1B2044324608EB090103F030FA53
:104B7000AF42B14424683E464FF0000028BF2E46A5
:104B8000002DEDD1BDE8F8832DE9F843C7884679BB
:104B9000154607FB06F6043E05EB030C1A1D664599
:104BA00004468846B2FBF7F038BFF51A07FB102120
:104BB00010B101382468FCD17E1AAE4228BF2E46BF
:104BC0009DB14FF0000904312144AD1B324608EB82
:104BD000090003F0FDF9AF42B14424683E464FF0AE
:104BE000000128BF2E46002DEDD1BDE8F88300BF9F
:104BF00033DF704741DF7047064A074B10B500248A
:104C000014701C60BFF35F8F0449054800F09CF8E6
:104C1000204610BD3515002038150020F8930100FE
:104C20002C15002000B583B002A8002300F8013D38
:104C3000FFF7FAF9F1EE103A23F09F03E1EE103A94
:104C4000BFF35F8F0A4B4022C3F884219DF8070011
:104C5000FFF710FA02F05EFC28B920BF40BF20BF6A
:104C600003B05DF804FBFFF7C5FF03B05DF804FB7C
:104C700000E100E0704700BFF8B5264D064601216F
:104C80002846FFF7C5FABFF35F8FD0B9042E2FD0A7
:104C9000214B1A7892B9214C012226701A70204EAD
:104CA00073687BB1374604E0384600F057F8736804
:104CB00043B11B68207898470028F5D1BFF35F8F78
:104CC0002860F8BDFEF746FAFEF704FA0028FBD18B
:104CD0002378023B012B0DD902F01CFCB8B94FF030
:104CE00080430122C3F80025BFF34F8F20BFFDE7AB
:104CF0000A4CD4E7BFF34F8F0A490B4BCA6802F442
:104D0000E0621343CB60BFF34F8F00BFFDE7FFF7B7
:104D10006FFFE4E73815002035150020341500201A
:104D20002C15002000ED00E00400FA058268002345
:104D3000936082681361826853618268D36082687D
:104D4000536082681360704701600B6843604A6873
:104D5000934204BF00234360704700BF436843B1E0
:104D6000026891680B4443605268934204BF002379
:104D70004360704730B4184DA5F59472AB1ADB1040
:104D800003EBD3735B1002EBC30152F8333098424C
:104D900028BF0C4605D311E052F8333098420CD2AC
:104DA00021468B1ADB1003EBD3735B108A4202EBB4
:104DB000C304F1D3094830BC70470D46984204D96A
:104DC00004F10802AA42D9D3F4E76068034B002833
:104DD00008BF1846EFE700BF4C9501001094010092
:104DE00030B585B0047845688DF80040D0E90240C0
:104DF000064A074B039053F8213001958DF808407F
:104E000052F821106846984705B030BD3C15002087
:104E10004015002030B585B0047845688DF8004015
:104E2000D0E90240064A074B039053F82130019520
:104E30008DF8084052F821106846984705B030BDFB
:104E40003C15002040150020F0B51A4B06781A4D8D
:104E50000C6991F81DE045F826400746174803F80D
:104E600006E040F826200C4694460FCC89B06D46EB
:104E70000FC594E80F0085E80F000496BEF1000FFF
:104E80000BD0BCF1000F0E4A694607F1040008BFC1
:104E9000002201F033F809B0F0BDBCF1000F094A5F
:104EA000694607F10C0008BF002200F003FE09B0BC
:104EB000F0BD00BF781800203C15002040150020F0
:104EC000E14D0100154E010030B51D4C94F85850CD
:104ED00083B095BB4FF0FF332946042204F1540000
:104EE000C4E90033C4E90233C4E90433C4E9063336
:104EF000C4E90833C4E90A33C4E90C33C4E90E3306
:104F0000C4E91033C4E91233236503F06CF80D4A89
:104F10000D4B0E491D60C02082F806034020106032
:104F20001B68019301984FF000430122284684F842
:104F30005820C1F8043303B030BD082003B030BDA1
:104F40004415002000E100E07C610040006000406A
:104F5000034B93F85800003018BF0120704700BF82
:104F60004415002070B43F4B1A1892F930400134B8
:104F700041D18C78E4B11A68013268D05A680132A4
:104F800067D09A68013266D0DA6801325DD01A695A
:104F9000013262D05A69013261D09A6901322DD052
:104FA000DA69013208BF072229D0042070BC70479B
:104FB000FE2382F830304A780123012A4FF0A042C4
:104FC00003FA00F30CBFC2F80835C2F80C3500F53F
:104FD000E0724FF0A043032143F82210C208224997
:104FE00000F007008C5C012303FA00F02043885492
:104FF000002070BC7047082070BC704706229400E7
:1050000004F1804404F5C0441D18002643F82260D2
:1050100085F83020D4F810350A784D7823F49813A9
:1050200023F4F85312042D05C4F8103505F4801547
:1050300002F4403203022A4303F4F853D4F8105523
:1050400013432B43C4F81035B5E70322D7E70022FA
:10505000D5E70122D3E70222D1E70422CFE70522D8
:10506000CDE700BF441500209815002001234FF024
:10507000A04203FA00F0C2F80805704701234FF080
:10508000A04203FA00F0C2F80C0570474FF0A041AF
:105090000122D1F8043502FA00F020EA03020340AD
:1050A000C1F80825C1F80C35704700BFF0B56C4B4E
:1050B0001C1894F93050002D68DA8E78C6F340063B
:1050C0009646002E5CD11D6A013500F0B58009249A
:1050D0000C2553F8247001375BD004F1010C53F810
:1050E0002C70013700F0B380A71CAF4246D253F8B2
:1050F0002720013200F0AD8004F1030CAC453DD215
:1051000053F82C70013700F0A28004F1040CAC4578
:1051100034D253F82C70013700F0998004F1050C5B
:10512000AC452BD253F82C70013700F0908004F17D
:10513000060CAC4522D253F82C70013700F0878062
:1051400004F1070CAC4519D253F82C7001377ED00E
:1051500004F1080CAC4511D253F82C70013776D00D
:1051600004F1090CAC4509D253F82C7001376ED00C
:105170000A34AC4202D2DC6A013409D00420F0BD0A
:105180001D68013567D001240825A2E70820F0BD7D
:105190000B241F1865B243F824E087F83050002E26
:1051A00051D08A78540714D4D6073BD44C784FF0AA
:1051B000A04600F5E072A40046F82240294EC4083B
:1051C00000F0070C375D012202FA0CF23A43325527
:1051D0008A780C7812F0020209D1083D2B4410465F
:1051E00093F8502042EA841483F85040F0BDAB009D
:1051F00003F1804303F5C0430202D3F8101521F4F4
:10520000473121F44071C3F810152404D3F8101568
:1052100004F4403402F4F85222430A43C3F8102540
:105220000020F0BD820002F1A042D2F8004724F035
:105230000204C2F80047C1E7082684F83060C3F8CA
:1052400020E0354634461C4484F84800A9E764460B
:105250009FE73C469DE700251A6084F83050A0E7A0
:10526000441500209815002070B42E4D2E1883B0E0
:1052700096F93030072B1CDD2B4493F848309B09FE
:10528000032B41D0012B14BF4FF440314FF40031B8
:10529000800000F1A040D0F8002722F44032C0F88E
:1052A0000027D0F800370B43C0F8003703B070BCBC
:1052B0007047DAB2072AF9D8980000F1804000F56B
:1052C000C04003F14002D0F81045920092B244F081
:1052D000010402F18042C0F8104502F5C0420020EE
:1052E0000190019C10600029E0D096F9302055F81B
:1052F0002220002ADAD001220B4902FA03F3C1F876
:10530000043303B070BC70474FF0A043D3F810359E
:10531000C34013F0010F0CBF4FF400314FF4403184
:10532000B6E700BF44150020006000404FF0A043E6
:10533000D3F8103523FA00F000F00100704700BFE9
:105340002DE9F04186B00023A14A01931668012E91
:1053500000F054811E469F4B1A68012A00F05D81BF
:105360009D4B1A68012A00F06A819C4B1A68012A39
:1053700000F077819A4B1A68012A00F08481994BDA
:105380001A68012A00F09181974B1A68012A00F0EF
:105390009E81964B1A68012A0CD0954B1B68012BF5
:1053A00000F0A58116F0FF0F15D1002E30DB06B0FE
:1053B000BDE8F0818F4AD2F804231706EDD500220C
:1053C0001A601A6804926033049A1B68012B46F035
:1053D000800600F08C81884F00240125A30003F192
:1053E0008043354203F5C0434FEA45050BD0D3F85F
:1053F000100557F82420D3F81015C0F30420C1F38A
:10540000014102B190470134082CE7D1002ECEDAD9
:1054100000224FF0FF33CDE90223774C012602AF83
:1054200094F950305D1C2CD0DBB223F0C00006AAEA
:105430004FEAD00C02EB0C0E03F007021EF80C1C16
:1054400006FA02F211421CD02518990995F930305C
:1054500054F82330002B00F09881032900F0988144
:105460004FEA800C0CF1A04C1EF8145CDCF800E74D
:105470001540CEF3014E40F05C81BEF1030F00F009
:10548000DE81002594F95130581C2DD0DBB223F079
:10549000C00006AA4FEAD00802EB080E03F007018D
:1054A0001EF80C2C06FA01FC12EA0C0F1CD0221874
:1054B000990992F9303054F82330002B00F05B81C9
:1054C000032900F05B81820002F1A0421EF8148CD7
:1054D000D2F800E718EA0C0FCEF3014E40F0368107
:1054E000BEF1030F00F0A68194F95230591C2DD063
:1054F000DBB223F0C00006AA4FEAD00802EB080E88
:1055000003F007011EF80C2C06FA01FC12EA0C0F3E
:105510001CD02218990992F9303054F82330002B0E
:1055200000F03C81032900F03C81820002F1A0429E
:105530001EF8148CD2F800E718EA0C0FCEF3014ED7
:1055400040F0E380BEF1030F00F06E8194F9533018
:105550005A1C2DD0DBB223F0C00006AA4FEAD008B7
:1055600002EB080E03F007011EF80C2C06FA01FCF2
:1055700012EA0C0F1CD02218990992F9303054F815
:105580002330002B00F0ED80032900F0ED80820035
:1055900002F1A0421EF8148CD2F800E718EA0C0FB2
:1055A000CEF3014E40F0BC80BEF1030F00F000814D
:1055B000002D3FF4FCAE4FF0A043019AD3F8103514
:1055C00093423FF4F4AE029A0193039228E700BF9E
:1055D0000061004004610040086100400C6100402F
:1055E0001061004014610040186100401C610040DF
:1055F0007C61004000600040441500209A49D1F8C9
:10560000041311F0010170D0136013680493049B1C
:10561000964B1A68012A7FF4A3AE934AD2F804236A
:1056200097077FF59DAE00221A601B680493049BC8
:105630008F4B1A68012A46F002067FF496AE8A4A1A
:10564000D2F8042355077FF590AE00221A601B683C
:105650000493049B874B1A68012A46F004067FF4E2
:1056600089AE814AD2F8042314077FF583AE002265
:105670001A601B680493049B7F4B1A68012A46F04A
:1056800008067FF47CAE784AD2F80423D0067FF572
:1056900076AE00221A601B680493049B774B1A684D
:1056A000012A46F010067FF46FAE6F4AD2F8042349
:1056B00091067FF569AE00221A601B680493049B73
:1056C0006F4B1A68012A46F020067FF462AE664AE4
:1056D000D2F8042352067FF55CAE00221A601B68E4
:1056E0000493049B46F0400653E60E4633E6654BB2
:1056F00000221A601B6805934FF0A043059AD3F867
:105700001035019346F000464CE6BEF1020F7FF4DF
:105710001DAF032963D0002B3FF418AF984715E75E
:10572000BEF1020F7FF444AF032969D0002B54D19E
:105730003EE7BEF1020F7FF4A4AE032900F0918092
:105740000025002B3FF49EAE98479BE6BEF1020F6A
:105750007FF4CAAE032956D0002B3FF4C5AE98475C
:10576000C2E603297FF424AF17F8082042EA0C02AE
:1057700007F808200BE703297FF4B6AE17F80820D6
:1057800042EA0C0207F808209DE603297FF479AE6F
:1057900017F80C50154307F80C5061E603297FF405
:1057A000D5AE17F8082042EA0C0207F80820BCE63C
:1057B0000329BBD14FF4003ED2F800C72CF4403C83
:1057C000C2F800C7D2F800C701354CEA0E0CEDB2A2
:1057D000C2F800C7002B3FF4EEAE9847E8E64FF45E
:1057E000403ED2F800C72CF4403CC2F800C7D2F8C3
:1057F00000C701354CEA0E0CEDB2C2F800C78AE7CB
:105800004FF4403ED8E74FF4403ED2F800C72CF4A6
:10581000403CC2F800C7D2F800C701354CEA0E0C74
:10582000EDB2C2F800C797E703297FF474AF4FF4D5
:10583000003ED6E703298FD14FF4003EE5E7032968
:105840007FF47FAF4FF40035DCF8002722F44032BC
:10585000CCF80027DCF800272A43CCF800270125E4
:105860006FE74FF44035EFE700600040046100400F
:10587000086100400C61004010610040146100406C
:10588000186100407C610040014B1B68184700BF55
:10589000A0150020104B984201D00020704730B571
:1058A00083B002A8002300F8013D0D46FEF7BCFBC3
:1058B0000A4B1C7934B19DF80700FEF7DBFB112081
:1058C00003B030BD01229DF807001D601A71FEF77C
:1058D000D1FB2046F4E700BF00200040A0150020C7
:1058E000034B984203D1034B00221A601A71704790
:1058F00000200040A015002030B56C4AD2F80433D7
:1059000099058BB066D5D2F82431002B62D00023E4
:10591000C2F82431D2F8243103934FF40171644B5F
:105920000398C2F8081393F8291009B901215160AE
:105930005E4902228DF81820D1F88024C1F8802415
:105940009869D96809920022CDE90710C3E90622B7
:10595000D3E9001406A8A047544AD2F81C31BBB1C1
:10596000534B186A5969884269D350480022C0F8DD
:105970001C21D0F81C010190019849B198688DF85C
:10598000182008915A610790D3E9001206A89047A1
:10599000464AD2F84431DBB10021454BC2F84411EC
:1059A000D2F8440193F829100090009809B1012120
:1059B00011609A6962B10022586AD9689A6101221D
:1059C000CDE907108DF8182006A8D3E900129047FA
:1059D0000BB030BD354AD2F804335B07BCD5D2F8E2
:1059E0000831002BB8D0324B996900293CD00021F6
:1059F000C2F80811D2F8081104910499D868596ABC
:105A0000D2F8182542545A6A996901325A625A6A80
:105A10008A42A1D1DA691968002A2ED0D8685D6A55
:105A20001C699A61079000220120DC60DA615A62E9
:105A30008DF8180008955B6806A898478CE793F8DE
:105A4000280000F0FF0400288FD1C2F81C41D2F8D2
:105A50001C11029102999C68186A196A205C013134
:105A60001962C2F81C0593E7C2F80811D2F80801C0
:105A700005900598D2F81825C9E793F8292012B99E
:105A80000A4A01205060094A4FF40170C2F8080325
:105A9000586ADA6808900024012007928DF81800EF
:105AA0005A689C6106A8904756E700BF0020004056
:105AB000A81500202DE9F0415E4F06792C2505FB45
:105AC000067582B095F82A30002B40F087800D468D
:105AD0000446594900689046FFF7DCFE002879D15A
:105AE0002B68591C0CD001224FF0A04102FA03F39D
:105AF000C1F808352B6803F5E073032241F8232031
:105B00006B685A1C06D003F5E0734FF0A0420021E9
:105B100042F823102368AA69C3F82425297D6B7DE8
:105B200022680B43C2F86C35D5E900122368C3F82C
:105B30001425C3F80C152B7D012B53D02C2303FB0C
:105B400006F3FA18C2F804802A69FA50B8F1000F77
:105B50002DD022682B7F394D0021C2F81C11D2F8BC
:105B60001C2100922268DDF800C0C2F84411D2F86E
:105B70004411226801910199C2F804532168090B6C
:105B80004AB25B01002ADBB24EDB02F1604202F551
:105B9000614282F800332368294D1B0B5AB2520927
:105BA00003F01F03012101FA03F345F822302C23EF
:105BB000246803FB0673002204250121C4F8005564
:105BC00083F82A10C3E9062283F829205A6102B01B
:105BD000BDE8F081112002B0BDE8F081082002B0DC
:105BE000BDE8F081AB68591C06D003F5E0734FF0B7
:105BF000A042002142F82310EB685A1C0DD001226C
:105C00004FF0A04102FA03F3C1F80835EB6803F541
:105C1000E073032241F82320EB682268A968C2F8E8
:105C20000835C2F8101589E7064A01F00F010A4449
:105C30001376B0E7A8150020F95801008000020093
:105C400000E100E0FCEC00E0F8B52F4D04790268BB
:105C50002C2303FB045300215B68C2F8001583B1B9
:105C600003682A4AC3F808230368294E1B0B5AB25B
:105C70005209203203F01F03012101FA03F346F811
:105C8000223003684FF0FF32D3F80CC5D3F81475F7
:105C9000D3F80815D3F81065C3F81425C3F80C25FC
:105CA00003689445C3F80825C3F8102506D00CF501
:105CB000E07C4FF0A043022243F82C207B1C06D04E
:105CC00007F5E0774FF0A043022243F82720721C2B
:105CD00006D006F5E0764FF0A043022243F82620D6
:105CE0004B1C06D001F5E0714FF0A043022243F8AF
:105CF00021200068FFF7F4FD2C2303FB045400234C
:105D000084F82A306360F8BDA815002084020200E0
:105D100000E100E0F0B5314E05792C2303FB05636B
:105D200085B05C69002C53D11C62996083F82840CF
:105D30005A610268C2F81C41D2F81C110268029133
:105D40000121029F91600268D3F808C0C2F81C418B
:105D5000D2F81C1101910199D3F820E0196A5F680B
:105D60001CF80EE001311962C2F81CE517B120469B
:105D700005B0F0BD1A6A5C690168944203D819E065
:105D800093F828203ABBD1F81C21002AF8D0C1F89A
:105D90001C71D1F81C210392039AD3F820E01A6AEF
:105DA0001CF80EE001321A62C1F81CE51A6AA24220
:105DB000E9D30168D1F81C31002BFBD00123CB6063
:105DC00000202C2303FB056500236B6105B0F0BDAB
:105DD000112005B0F0BD0F20F3E700BFA81500208B
:105DE000F0B5444BD3F8242189B0002A52D00021C9
:105DF000C3F82411D3F82421029202228DF8102036
:105E0000029AD3F880043C4AC3F880040790D3F880
:105E10003C05D3680690C2E90611059311685368E2
:105E200004A89847334BD3F84421BAB10021324A31
:105E3000C3F84411D3F8444190690194019C68B1BE
:105E4000D3F83C35D06806930123C2E906110590CA
:105E50008DF8103004A8D2E900139847254BD3F8E9
:105E60002021AAB10021C3F82011D3F82001224A31
:105E700000900098506958B1D3F84C05936806908B
:105E80008DF810105161059304A8D2E900139847CA
:105E900009B0F0BDD3F810110029C3D0C3F8102108
:105EA000D3F810111448039103998169D3F83C4544
:105EB0008C42B7D1C569C768D0E900168DB1D3F857
:105EC00000C285612CF02005C261C3F8005203694D
:105ED000C3600122CDE905748DF8102004A8B047F5
:105EE000A0E701238561CDE905748DF8103004A881
:105EF000B04797E700200040D41500202DE9F0437B
:105F00000779674E4FEAC70808EB070306EB8303E0
:105F100085B093F82030002B40F096800D46044663
:105F2000604900689146FFF7B5FC002840F0888082
:105F30002B68591C0CD001224FF0A04102FA03F348
:105F4000C1F808352B6803F5E073032241F82320DC
:105F50006B685A1C06D003F5E0734FF0A042002195
:105F600042F823102368AA69C3F82425297D6A7D95
:105F700023680A43C3F86C25D5E900312268C2F8CA
:105F80000C35C2F814152B7D012B61D008EB0702EC
:105F90009200B318C3F804902B69B350B9F1000F05
:105FA0003DD021682B7F404D0022C1F81021D1F84F
:105FB000101100912168DDF800C0C1F82021D1F84E
:105FC000201101912168DDF804C0C1F82421D1F825
:105FD000241102912168DDF808C0C1F84421D1F8EC
:105FE0004411226803910399C2F804532168090BF4
:105FF0004AB25B01002ADBB24CDB02F1604202F5DF
:10600000614282F800332368284D1B0B5AB25209B3
:1060100003F01F03012101FA03F345F8223047443E
:10602000226806EB8706002301240821C2F8001528
:1060300086F82040C6E90633736105B0BDE8F083F9
:10604000112005B0BDE8F083082005B0BDE8F0835D
:10605000AB68591C06D003F5E0734FF0A042002155
:1060600042F82310EB685A1C0DD001224FF0A041DA
:1060700002FA03F3C1F80835EB6803F5E073032275
:1060800041F82320EB682268A968C2F80835C2F8F5
:1060900010157BE7064A01F00F010A441376B2E7B8
:1060A000D4150020E15D01001003020000E100E0D2
:1060B000FCEC00E0F8B506792F4C0268F500AB194E
:1060C00004EB830300215B68C2F8001583B1036809
:1060D0002A4AC3F808230368294F1B0B5AB25209F6
:1060E000203203F01F03012101FA03F347F82230A5
:1060F00003684FF0FF32D3F80CE5D3F814C5D3F89A
:106100000815D3F81075C3F80C25C3F814250368D7
:106110009645C3F80825C3F8102506D00EF5E07E95
:106120004FF0A043022243F82E20BCF1FF3F06D0DF
:106130000CF5E07C4FF0A043022243F82C207A1C9F
:1061400006D007F5E0774FF0A043022243F827205E
:106150004B1C06D001F5E0714FF0A043022243F83A
:106160002120354404EB85040068FFF7B9FB0023C8
:1061700084F820306360F8BDD415002010030200BD
:1061800000E100E001F06043B3F1005F2CD1F0B416
:106190000579244EEF007C1906EB840482B0636914
:1061A00023BB6261A1600268C2F82031D2F820C12D
:1061B0000268CDF804C0DDF804C0C2F85831D2F846
:1061C000582100920268DDF800C0D4F814C0C2F86B
:1061D0004415C2F848C502680121916062684AB15D
:1061E000184602B0F0BC704710207047112002B072
:1061F000F0BC7047036800E08AB9D3F82011D3F8E7
:1062000058210029F8D0002A14BF0F2000207B1944
:1062100006EB830300225A6102B0F0BC70470F20E6
:10622000F5E700BFD4150020C4DF7047F8B503467A
:106230005068986012685A60002414705A681448B4
:1062400054701E460A78134D06F80C2B0F4612495F
:10625000DC606D1A03C87460ED08FF265C615E7334
:106260001C83C3F81A40DC831C629C8483F826409C
:106270009E622D042C3383E8030045F00300074998
:10628000FCF7C6FB3846BDE8F84000F067BA00BF2F
:1062900054990100A4A4010084A40100889901007C
:1062A00010B5094A094B0A499B1A0446D80800044C
:1062B00040F003002278FCF7ABFB20780021BDE81A
:1062C0001040FFF7B1BF00BF84A40100A4A40100E7
:1062D000A499010090F82C200B789A4200D07047C6
:1062E00070B590F82D30802B0D4604461FD14378B1
:1062F0004E3B022B04D94A685378012B3AD070BD2B
:10630000404B4148E2784149C01AC008000440F0BF
:106310000300FCF77DFBE378112B45D030D9502BDF
:1063200054D0512B4CD0122B56D094F82D306A6893
:1063300051780129E3D1022B1CD015D8012BDED1D5
:106340005224304B30483249C01AC008000440F093
:106350000300FCF7AFF96B6800225A702146AB6866
:106360002846BDE870401847062B01D15324E8E7C2
:10637000802BC4D11378591E1170002BE0D070BD52
:10638000012B35D0102BD0D1261D304605F114013C
:1063900000F000F9304605F1340100F03BF8AB683D
:1063A000E17828469847C0E7261D304605F11A01D6
:1063B00000F034F9304605F1340100F02BF8EEE737
:1063C00005F12C01201D00F01DFAE8E705F126017A
:1063D000201D00F0E7F9E2E7261D304605F1200117
:1063E00000F036F9304605F1340100F013F8D6E735
:1063F00005F10C01201D00F02BF86B6800225A708B
:10640000CDE700BF84A40100A4A401005C990100B1
:106410007099010010B40A4B0A4C82780A70181B5C
:10642000C0080004FF2A40F0030004D006495DF8CC
:10643000044BFCF7EDBA05495DF8044BFCF73AB99B
:10644000ACA4010084A40100F4990100C4990100E6
:1064500038B5454B454C02780A70E41A0378E408D5
:106460002404AC2B0D4644F0030468D03ED8122B14
:106470004AD0AB2B6BD0102B55D03D492046FCF7B2
:10648000C7FA2B78AB2B25D00BD8122B22D0AA2BF6
:1064900039D0102B41D020463649BDE83840FCF7B2
:1064A00009B9AF2B10D00DD9BA3B032BF3D8204636
:1064B0003149FCF7FFF8A91C20460622BDE8384008
:1064C000FCF764BDAC2BE6D1B5F902202B49204680
:1064D000FCF79EFA6B78012B3CD02AD3FF2B12D10C
:1064E00020462749BDE83840FCF7E4B8AF2B26D05A
:1064F000C3D3BA3B032BC0D8411C0622A81C01F011
:1065000067FD2A78B9E738BD4378D90728D513F055
:10651000020318BF01236B70AFE720461949BDE89D
:106520003840FCF7C7B818492046FCF7C3F82A786A
:10653000A3E720461549BDE83840FCF7BBB84378CF
:106540006B708179437943EA01236B8095E7437847
:106550004B7092E720460E49BDE83840FCF7AAB8D8
:10656000FF236B7089E700BF84A40100B4A401007D
:10657000349A0100FC9A0100D89A01005C9A01004B
:10658000849A0100C49A01001C9B0100A09A01009A
:10659000B49A010070B502784A7043780B7006799E
:1065A000C378174C0D46174943EA06236B80641ADB
:1065B000867943791449E408240443EA062344F025
:1065C0000304AB802046FCF723FA2A78FF2A11D077
:1065D00002F07F020D492046FCF71AFA6A880C493E
:1065E0002046FCF715FAAA880A492046BDE8704003
:1065F000FCF70EBA08492046FCF75CF8EEE700BF4E
:10660000BCA4010084A401003C9B0100649B010028
:10661000B89B0100E49B0100909B010010B50C4663
:1066200000F084F8074B08480849C01AC008000465
:1066300040F00300FCF73EF82046BDE8104000F0B3
:1066400021B800BF84A40100C4A40100249C01005F
:1066500010B50C4600F06AF8074B08480849C01A04
:10666000C008000440F00300FCF724F82046BDE811
:10667000104000F007B800BF84A40100CCA40100C2
:10668000409C01002DE9F047204B214C2149E41AA0
:106690008046E4088088B8F802C00A252404102245
:1066A0000023E0FB052344F003044FF47A792046ED
:1066B00055094FF4806698F80020002745EAC36525
:1066C000ECFB0967FCF7A4F998F801201249204671
:1066D000FCF79EF9114A1249C6F3CF26A2FB0632F7
:1066E000920909FB1266B3B22046FCF711FA0D4A73
:1066F0000D49A2FB0532D20802EB82032046A5EB2E
:106700004303BDE8F047FCF703BA00BF84A40100CF
:10671000D4A401005C9C0100809C0100D34D621058
:10672000A49C0100CDCCCCCCD09C010003780B7094
:1067300043784B700279C37843EA02234B80827915
:10674000437943EA02238B80704700BFC2DF704762
:10675000CDDF7047D1DF7047D3DF704710B50446F7
:106760008378827A41780078FFF7F0FF00B110BD9E
:1067700023796279E1882078FFF7EEFF0028F6D1CF
:10678000E1782078FFF7E4FF0028F0D1A378DB0759
:10679000EDD421890029EAD02078BDE81040FFF728
:1067A000D9BF00BF70B583780B700D46C3780179EF
:1067B0000F4A104C43EA01236B80867943790E49D6
:1067C000A41AE40843EA06232404AB8044F003043B
:1067D0002A782046FCF71CF96A8808492046FCF70D
:1067E00017F9AA8806492046BDE87040FCF710B9A1
:1067F00084A40100DCA40100149D01003C9D010063
:10680000649D010038B543780B7083784B70104C51
:10681000104BD0F803204A60E41A0B78E4082404F3
:10682000FF2B0D4644F003040CD00B784A780A493C
:106830002046FCF76DF96A6808492046BDE83840F3
:10684000FCF7E6B84A7806492046FCF7E1F8F2E79B
:10685000E4A4010084A40100A09D0100F09D0100BA
:10686000C89D0100CCDF70470149FFF7FBBF00BFA7
:106870009C0B002008B5002000F058F818B1034A1E
:106880008921FCF7D1FF012008BD00BF2C9E01002B
:1068900008B51A4B90F82C201B789A4200D008BDFE
:1068A000174B1B780BB1402BF9D190F82D30072BEB
:1068B00017D00ED8012B1DD0022BF0D10B2000F0E9
:1068C00035F80028EBD00F4A7C21BDE80840FCF7E2
:1068D000ABBF082B0AD0802BE1D1072000F026F8AF
:1068E000EFE70020BDE80840FEF7C6B9012000F040
:1068F0001DF8E6E7002000F019F8E2E7A40B0020FD
:10690000F81500202C9E0100074B1B78102B07D098
:10691000402B02D00BB100207047012000F006B8D8
:10692000022000F003B800BFF815002038B5C54BB1
:106930001C6814F0010401D1204638BDC24C2378F4
:10694000054663B1C14B1B780020207023B3FCF7D0
:1069500087FD0120FCF784FD0320FCF781FD172D46
:1069600000F26D81DFE815F0C300EC00EC001001CF
:10697000D90023010201360128001B0028001B005A
:106980006A00710071007100710071009A00AD0021
:1069900035004B0064006400FCF76EFDDFE7012367
:1069A00018462370FCF794FD00224FF48041A8485C
:1069B000BDE83840FDF7A2BA012318462370FCF762
:1069C00087FD002240F6CD41A148BDE83840FDF7E3
:1069D00095BA9E4B1B78002B00F016810020FCF727
:1069E0003FFD0120FCF73CFD0320FCF739FD0120B1
:1069F000FCF72AFD974B14221A7000249CE7934B56
:106A00001B78002B00F003810020FCF729FD0120FA
:106A1000FCF726FD0320FCF723FD0020FCF714FD06
:106A20000120FCF711FD8B4B15221A70002483E71F
:106A3000FCF738FD874B00241D707DE7FCF732FD25
:106A4000844B0C221A70002476E78348FDF7ACFAD9
:106A50000446D5F1110000F0C580002C40F0C28042
:106A6000012814D0C82505FB00F54FF400434FF46E
:106A7000FA700021C3FB05014FF47A72002301F084
:106A8000BFFE224601467448FDF738FA044602204C
:106A9000FCF7DAFC6D4B01221A704DE76B4B1B784B
:106AA000002B00F0AE800020FCF7DAFC0120FCF7A0
:106AB000D7FC0320FCF7D4FC664B12221A7000248A
:106AC0003AE7624B1B78002B00F093800020FCF724
:106AD000C7FC0120FCF7C4FC0320FCF7C1FC00202C
:106AE000FCF7B2FC5B4B13221A70002424E7574BCF
:106AF0001B78002B00F08E800020FCF7B1FC0120F9
:106B0000FCF7AEFC0320FCF7ABFC5148FDF74CFA58
:106B1000504B002204461A700EE70020FCF786FC5A
:106B2000002869D00020FCF79BFC4FF40031494B52
:106B3000474804241C700022BDE83840FDF7DEB948
:106B40000020FCF773FC00286CD00020FCF788FCC8
:106B5000022D4EF2666118BF4FF400313D4B3C48A8
:106B60001D700022BDE83840FDF7C8B90020FCF7D1
:106B7000AFFC384B364806241C70002240F6CD414D
:106B8000BDE83840FDF7BAB90020FCF74FFC0028FB
:106B900043D00020FCF764FC46F266612D4B2C4884
:106BA00003241C700022BDE83840FDF7A7B900207F
:106BB000FCF73CFC00283FD00020FCF751FC254BA3
:106BC000234805241C70002241F69A11BDE8384084
:106BD000FDF794B90020FCF737FC1E4B07221A7012
:106BE0000024A9E60220FCF73BFC184B00221A7097
:106BF000A2E6FCF741FC72E7FCF726FC43F23331D6
:106C000095E7FCF739FC57E7FCF736FCEFE6FCF7B5
:106C100033FC02E7FCF730FC77E7FCF715FC41F6A4
:106C20009A11BBE7FCF710FC43F2333141F69A139B
:106C3000022D08BF194691E7FCF706FCBFE70024C8
:106C40007AE600BF481600204C160020F9150020F7
:106C50001C1600204D160020FC150020022811D81B
:106C6000012A0BD0012919D00ED302290AD10E4BCB
:106C700000EB4000034400205A70704701290AD0FD
:106C80000022EFE707207047074B00EB400003446A
:106C900000209A70704700F10E02D2B200EB400360
:106CA00001490020CA5470473C160020194B90F847
:106CB0002C201B789A4200D07047174B1B780BB1E1
:106CC000402BF9D110B590F82D30082B05D0802B32
:106CD00002D1124C217891B110BD00230F4C1946FE
:106CE0000A2203202370FFF7B9FF0728F4D00028F9
:106CF000F2D00B4A9421BDE81040FCF795BD01226B
:106D00000320FFF7ABFF012307282370E4D00028FE
:106D1000E2D0EEE7A50B00204E1600204F16002013
:106D20007C9E0100C5DF7047D3DF7047D4DF70471A
:106D300038B50C460546FDF79DFF102C04D1288B75
:106D4000BDE8384000F03ABD38BD00BF10B582B094
:106D50000F2813D8DFE800F014182655595D616537
:106D6000696D7175797D81083E483F4B3F49C01A76
:106D7000C008000440F00300FBF79CFC02B010BD0B
:106D80003848394B3A49F2E7374B36483949C01A47
:106D9000C008000440F00300FBF78CFC0020FFF764
:106DA000C1FFEBE7304B2F4C3349E41AE4082404CD
:106DB00044F003042046FBF77DFC0DF1050301AA16
:106DC0000DF106010020FFF7B1FF2046BDF80620B7
:106DD0002A490024FBF71CFE214620469DF8053079
:106DE0009DF80420ADF80640FFF79EFF2448FFF70A
:106DF00057FA0028C2D0234A40F24511FCF714FD8F
:106E0000BCE71848184B2049B1E71648164B1F49F4
:106E1000ADE71448144B1E49A9E71248124B1D490F
:106E2000A5E71048104B1C49A1E70E480E4B1B4923
:106E30009DE70C480C4B1A4999E70A480A4B194937
:106E400095E70848084B184991E70648064B17494B
:106E50008DE70448044B164989E70248024B15495F
:106E600085E700BFECA4010084A40100C4A00100D8
:106E7000FC9E0100189F0100309F0100489F010007
:106E8000001700205C9F01006C9F0100849F01009F
:106E9000A09F0100BC9F0100D89F0100F89F010046
:106EA00018A0010038A0010054A0010070A001004A
:106EB0008CA00100A8A0010000B54FF4004183B0F0
:106EC0000020FBF797FB20B13C4A4FF49271FCF78E
:106ED000ABFCFBF715FBFCF7ABFF18B1374ADB2126
:106EE000FCF7A2FCFDF788FE18B1344ADE21FCF75E
:106EF0009BFC00F07DFA18B1304AF121FCF794FCBC
:106F000000F056FB18B12D4AF621FCF78DFC00204D
:106F1000FFF7AAFC18B1294AF921FCF785FC284A99
:106F200028492948FFF782F920B1244A40F2071185
:106F3000FCF77AFC254B93E803006B4683E80300DB
:106F4000184600F0C7FF20B11C4A4FF48A71FCF7C5
:106F50006BFC1D48FFF7A4F920B1184A40F2171145
:106F6000FCF762FCFFF7D0FC20B1144A4FF48D719E
:106F7000FCF75AFC164A0A210820FCF7D1FC20B184
:106F80000E4A40F22B11FCF74FFC124800F0EEFEC7
:106F9000114B12481249C01AC008000440F0030007
:106FA000FBF788FB00F076FBFCF794F80028FBD198
:106FB000FCF7DEFCFDF736FEF6E700BF5C9F010044
:106FC000CC9E0100C09E010000170020B89E010069
:106FD000501600204D6D010084A40100ECA40100B6
:106FE000D49E0100BFF34F8F0549064BCA6802F4D7
:106FF000E0621343CB60BFF34F8F00BFFDE700BFDC
:1070000000ED00E00400FA0538B5B34B1B78062B01
:1070100024D0B24B1B68062B00F08980B04AD2F80E
:10702000883043F47003C2F88830BFF34F8FBFF34A
:107030006F8F4FF01023D3F80C22D20700F1B081EC
:10704000D3F80022002AC0F28581D3F80432002B45
:10705000C0F28081A34BA44A1A6038BDA34B1B68C1
:107060001B07D6D1A24B1B6803F0F002302A00F0B8
:107070009D8003F0E003402B00F098809C4B1B6840
:1070800003F0F003302B00F01881994B1B6803F0DC
:10709000F002302A7AD003F0E003402B76D0944BF4
:1070A0001B6803F0F003302B00F04481904B1B6809
:1070B00003F0F002302A56D003F0E003402B52D008
:1070C0008B4B1B6803F0F003302B00F0E880884BFB
:1070D0001B6803F0F003302B00F0CA80844B1B6860
:1070E00003F0F003502B71D0814B1B6803F0F002CA
:1070F000302A27D003F0E003402B23D07C4B1B68C1
:1071000003F0F002302A03D003F0E003402B80D1DB
:107110004FF08043D3F80024D10744BF6FF0010241
:10712000C3F800246D4B1B68062B7FF477AF714BBF
:107130001B68062B7FF472AF6F4A136843F48063B9
:1071400013606BE76D4B6E4A1B6803F04F031360CF
:10715000614B1B78062B7FF45CAF644B1B681807F0
:107160007FF457AFCAE74FF080430022C3F80C21E9
:10717000C3F81021C3F83825574B1B78062BE7D1ED
:107180005A4B1B681A077FF444AF99E75D4B524A8C
:107190001B6812785C49C3F34233062A0B6073D133
:1071A000524B1B6818077FF434AF78E7574B4A4AB5
:1071B0001B6812785649C3F30423062A0B60DBD1FF
:1071C0004A4B1B681D077FF424AF57E74FF08053ED
:1071D000504AD3F80414C2F82015D3F80814C2F8A2
:1071E0002415D3F80C14C2F82815D3F81014C2F8DB
:1071F0002C15D3F81414C2F83015D3F81814C2F8AB
:107200003415D3F81C14C2F84015D3F82014C2F872
:107210004415D3F82414C2F84815D3F82814C2F83A
:107220004C15D3F82C14C2F85015D3F83014C2F80A
:107230005415D3F83414C2F86015D3F83814C2F8D2
:107240006415D3F83C14C2F86815D3F840142248EA
:10725000C2F86C15D3F844140378C2F87015062BE5
:107260007FF4D7AE214B1B681C077FF4D2AE3BE7FF
:10727000294A2A4C2A492B4B052010600125002061
:107280003F22256008601A60134B1B78062B7FF4A1
:10729000C0AE164B1B681D077FF4BBAE1EE70E4B3E
:1072A000214A1B780321062B11607FF4B2AE0F4BED
:1072B0001B681B077FF4ADAE09E7074B1B4A1B7821
:1072C0001B491160062B7FF4A4AE084B1B681C07FA
:1072D0007FF49FAED9E600BFE00F00F03001001050
:1072E00000ED00E0A80B00200090D003E40F00F0B8
:1072F000E80F00F0340100103C1700405802001065
:10730000E40E0040440200103C050040240300103D
:107310004035014000C000401056004088560040F3
:107320001856004014560040A005004074C00740A5
:107330000DF0ADBA29492A4BCA681B7822F0807239
:10734000062BCA607FF465AE264B1B6819077FF4D5
:1073500060AEABE6244A0123C2F80435D2F800340B
:10736000002BFBD04FF0102315211F4AC3F8001249
:10737000D2F80034002BFBD04FF0102315211A4A0D
:10738000C3F80412D2F80034002BFBD000231649B6
:10739000C2F80435D1F80034002BFBD0FFF722FEF1
:1073A000114B0122C3F80425D3F80024002AFBD096
:1073B0004FF010210C4BD1F80C2222F00102C1F841
:1073C0000C22D3F80024002AFBD00021064AC3F87F
:1073D0000415D2F80034002BFBD0DFE7F0ED00E01D
:1073E000E00F00F0E40F00F000E0014010DF704714
:1073F00070B53D4D2B7884B0002B64D13B4E3C4999
:10740000012302A83370FDF79FFC039B002B50D192
:10741000384902A8FDF798FC039B4BB1D3E9002142
:107420000020904702A8FDF799FC039B002BF5D1A3
:10743000314A002312688DF8083002A80192FCF747
:10744000F3FD2E4A2E4901A8FFF7D0FFB0FA80F3D2
:1074500004465B099DF808002B70FCF70BFE002C1E
:107460002ED1284B28491C70347091F81623EC2338
:1074700052091341DB072FD5244B9A683ABB4FF4CE
:1074800080030B601B4902A8FDF75EFC039BBBB1A8
:10749000D3E900210120904702A8FDF75FFC039B80
:1074A000002BF5D10CE002A8FDF758FC039B002B44
:1074B000AED0D3E90021002090470028F3D1044644
:1074C000204604B070BD0824204604B070BD1A6880
:1074D00042F480021A60D5E70D4AA12142F202006F
:1074E000FCF7A2F9CEE700BF3B1700203A170020B7
:1074F00048A1010060A10100E0A00100E4A001009A
:10750000453801003C17002000E100E06C18002025
:107510000CA10100014B1878704700BF3B170020F9
:1075200000B583B068460849FDF70EFC019B43B1E6
:10753000D3E9002090476846FDF710FC019B002B23
:10754000F6D103B05DF804FB54A10100C1DF704720
:10755000FADF7047134B1B781BB310B5124C8EB07B
:1075600002AA0DF135010DA8FFF7F0FF88B92146F9
:107570006846FDF7E9FB019B002BF1D0D3E9002120
:1075800002A890476846FDF7E9FB019B002BF5D167
:10759000E6E7052803D0054A9721FCF745F90EB028
:1075A00010BD7047C0170020E0A10100A0A101009C
:1075B00010B5114B93E8070084B001AB83E80700D6
:1075C0001846FFF7C5FF044628B90C4B0122204698
:1075D0001A7004B010BDFDF7CDFB094A094B0A49EA
:1075E0009B1ADB081B04024643F00100FBF710FA6C
:1075F000204604B010BD00BF74A10100C0170020D8
:1076000084A4010004A5010080A10100704700BF0F
:1076100008B50A4B1968B1F5FA7F00D308BD0022FE
:107620000748FCF76BFC18B9064B01221A7008BD1D
:10763000054A3821FCF7F8F8F6E700BFB00B002048
:10764000E4170020AC0B00204CA2010010B50E4C3A
:107650001420FDF71BFD2378142053B1FDF706FD20
:10766000002220210948FCF749FC30B9002323708F
:1076700010BDBDE81040FDF701BD054A2521FCF70E
:10768000D3F80023237010BDAC0B0020E4170020BA
:107690004CA2010030B583B0FDF75AFC002868D039
:1076A000384B394C3949E41AE408240444F0030403
:1076B0002046FAF7FFFF0023694614208DF80230B8
:1076C000ADF80030FDF74EFC00284DD13049204682
:1076D000FAF7F0FF032502232E4A8DF8043001A9A2
:1076E00012208DF806308DF80550FDF7DFFC0028DC
:1076F00035D129492046FAF7DDFF01211220FDF797
:10770000B3FD0021254A2648FCF7E6FB254905463E
:107710002046FAF7CFFFE5B90121234A2348FCF7B9
:10772000DBFB234905462046FAF7C4FF5DB900227A
:1077300080212048FCF7E2FB18B11F4A6D21FCF7BD
:1077400073F803B030BD28461B4A6A21FCF76CF879
:10775000EDE72846184A6621FCF766F8DCE7164A8A
:107760005D21FCF761F8C4E7134A5221FCF75CF88D
:10777000ACE7FDF7A9FB002892D00F4A4921FCF79E
:1077800053F88DE784A40100ECA40100F8A10100E6
:1077900008A20100117601001CA201004D76010033
:1077A00064A201002CA201000D76010060A201007C
:1077B0003CA20100C41700204CA20100F8B5044609
:1077C000334E344D344FFCF729FC3449344A286099
:1077D000761A1368334D1060F6083604C31A46F063
:1077E00003061A4630492B603046FBF711F92F4B40
:1077F0002D682F49A3FB0535C5F307352A463046CA
:10780000FBF706F93B882B49E41A24B2224630469E
:10781000FBF7FEF82848274905FB04F580FB0534F3
:10782000ED17C5EBA404304622B2FBF7F1F8388817
:10783000204480B2C828388026D8A0F129039F2B85
:1078400012D9153813281D4B94BF8C224FF4FA72AD
:107850001A6030461A49FBF7DBF83A881949304676
:10786000BDE8F840FBF7D4B800F02EFD0022164B1F
:1078700000F094FD0022154B00F0DAFB00F0A0FFB1
:107880000E4B02461860E4E70C4B3C221A60E0E71E
:10789000ECA40100081800200418002084A40100B2
:1078A000101800200C18002068A201000712308078
:1078B00084A20100A4A2010067666666B00B0020E6
:1078C000C4A20100E4A201000000E0BF0000644087
:1078D00010B52F4B1B781BB92E4B1B68762B23D969
:1078E0002D4B1B781BB92D4B1B68762B11D92C4BBC
:1078F0001B786BB92B4B1B68762B09D82A4C237845
:10790000012B29D1294B03201B68984700232370A2
:1079100010BD274C2378012B10D1244B02201B686B
:10792000984700232370E2E7224C207801280CD1ED
:107930001E4B1B68984700232370D1E7022B12D1FE
:107940001A4B0B201B689847EBE7022812D1174B04
:107950000A201B689847EEE7022B12D1134B0C202C
:107960001B689847D2E7032BDBD1104B0E201B6816
:107970009847D6E70328DED10C4B0D201B689847AB
:10798000D9E7032BC2D1094B0F201B689847BDE7ED
:107990002418002018180020251800201C1800208A
:1079A0002618002020180020161800204818002053
:1079B000151800201418002038B50020FBF7ECFE45
:1079C00005460120FBF7E8FE04460220FBF7E4FE33
:1079D0009DB161480268511C34BBC72979D8016048
:1079E0005E495F4A00230B6013600022A4215D48BA
:1079F000FCF784FA002834D138BD002C3ED0574A19
:107A00001368591CC72932D95749584C087824683B
:107A1000C73B1360002859D1012305200B70A047F4
:107A2000534B00221A7023E04C4C2368C72903F102
:107A30000103236039D80160C72B0ED94A4A4B484D
:107A400011780568C83B2360002964D10123052013
:107A50001370A847464B00221A70414B00221A604F
:107A6000C3E7444AB721BDE83840FBF7DDBE1160EB
:107A700039493B4A00230B601360B6E7002835D034
:107A8000374A1368591CC72953D93B49374C0878E2
:107A90002468C73B136000285BD1012306200B70CC
:107AA000A047364B00221A7044E0354B2F4D197811
:107AB0002D68C73A0260002930D1012204201A70D3
:107AC000A847304A236800211170B5E70820A04775
:107AD000A6E72B4B254C19782468C73A026019B3E6
